:1000000000000420750300005D0300005F03000092
:1000100061030000630300006503000000000000AE
:100020000000000000000000000000006703000066
:1000300069030000000000006B0300006D03000076
:100040006F0300006F0300006F0300006F030000E8
:100050006F0300006F0300008D1100006F030000AC
:100060006F0300006F0300006F0300006F030000C8
:100070006F0300006F0300006F0300006F030000B8
:100080006F0300006F0300006F0300006F030000A8
:100090006F0300006F0300006F0300006F03000098
:1000A0006F0300006F0300006F0300006F03000088
:1000B0006F0300006F03000000000000000000005C
:1000C0006F0300006F0300006F0300006F03000068
:1000D0006F0300006F0300006F0300006F03000058
:1000E0006F0300006F0300006F03000000000000BA
:1000F000000000006F030000000000006F0300001C
:1001000000000000000000000000000000000000EF
:1001100000000000000000000000000000000000DF
:1001200000000000000000000000000000000000CF
:1001300000000000000000000000000000000000BF
:1001400000000000000000000000000000000000AF
:10015000000000000000000000000000000000009F
:10016000000000000000000000000000000000008F
:10017000000000000000000000000000000000007F
:10018000000000000000000000000000000000006F
:10019000000000000000000000000000000000005F
:1001A000000000000000000000000000000000004F
:1001B000000000000000000000000000000000003F
:1001C000000000000000000000000000000000002F
:1001D000000000000000000000000000000000001F
:1001E000000000000000000000000000000000000F
:1001F00000000000000000000000000000000000FF
:10020000354936480A1A02D0072291438D463449AF
:1002100034480A1A06D00722914381F30988022242
:1002200082F3148830483149314A00F044F83148AB
:100230003149324A00F03FF831483249324A00F041
:100240003AF832483249334A00F035F832483349F7
:10025000334A00F030F833483349344A00F02BF881
:1002600033483449344A00F026F8344834490022EF
:1002700000F02CF833483449002200F027F83348C6
:100280003349091A082902DB002202604160314A21
:1002900090471F481F49884205D00268043003B4C4
:1002A000904703BCF7E700208646EC46002000217B
:1002B000294A9047FEE7884207D0521A05D00378B2
:1002C00001300B700131013AF9D17047884202D0F8
:1002D00002700130FAE770470000042000E00320BC
:1002E0000000042000000420C02B000000000020BB
:1002F0000C000020D0030000D00300007028000094
:10030000C02B00000000002000000020702800002A
:10031000702800007028000070280000702800007D
:10032000702800007028000070280000BF2B00001B
:10033000CC2B00000C0000200C0000200C00002042
:100340009C0000209C0000209C0000209C000020BD
:100350009C2000209D030000D5160000FEE7FEE76C
:10036000FEE7FEE7FEE7FEE7FEE7FEE7FEE7FEE765
:1003700000F002B8FFF7FCBF0F484FF007018843B9
:1003800085460E4880470E48016841F470010160BF
:10039000BFF34F8FBFF36F8FFFF732BF09480A4992
:1003A0000A4A884207D0521A05D0037801300B70F0
:1003B0000131013AF9D1704700000420611C0000AE
:1003C00088ED00E070280000000000200000002000
:1003D00002F028BA00B583B00190019B1B682F2B57
:1003E00004D90B4940F2CD1000F0E6F9019B1B68DF
:1003F0001F2B02D84FF0A04306E0019B1B6803F0BF
:100400001F02019B1A60034B184603B05DF804FB02
:10041000702800000003005000B585B00190084628
:1004200011461A4603468DF803300B468DF802300C
:1004300013468DF8013001AB1846FFF7CBFF039050
:100440009DF803209DF802305B001A439DF80130AF
:100450009B001A439DF818301B0242EA03019DF8E5
:100460001C301B04019A1943039B02F5E07243F808
:10047000221000BF05B05DF804FB00B585B0039005
:1004800000230193002300930023012201210398FC
:10049000FFF7C2FF00BF05B05DF804FB00B585B0F3
:1004A00003900B468DF80B309DF80B300022019223
:1004B00000220092002200210398FFF7ADFF00BF49
:1004C00005B05DF804FB00B585B0019001AB18469E
:1004D000FFF780FF0390019B012202FA03F3194604
:1004E000039800F02AF800BF05B05DF804FB00B5E2
:1004F00085B0019001AB1846FFF76CFF0390019B9C
:10050000012202FA03F31946039800F020F800BF15
:1005100005B05DF804FB00B583B001900091009B2D
:10052000002B03D10198FFF7E2FF02E00198FFF7EB
:10053000CAFF00BF03B05DF804FB82B001900091D8
:10054000019B009AC3F8082500BF02B0704782B033
:1005500001900091019B009AC3F80C2500BF02B0E6
:100560007047000000B583B00190019B032B03D9B5
:100570000749412000F020F9064A019B13441B78EB
:1005800000211846FFF7C7FF00BF03B05DF804FB6A
:10059000A0280000E428000000B583B00190019B72
:1005A000032B03D90749472000F006F9064A019BAF
:1005B00013441B7801211846FFF7ADFF00BF03B0BD
:1005C0005DF804FBA0280000E428000000B583B01B
:1005D0000023019305E00198FFF7DEFF019B013343
:1005E0000193019B032BF6D900BF00BF03B05DF858
:1005F00004FB00B583B00023019305E00198FFF7E9
:10060000B1FF019B01330193019B032BF6D900BF7E
:1006100000BF03B05DF804FB00B583B00023019375
:1006200009E0094A019B13441B781846FFF725FF90
:10063000019B01330193019B032BF2D9FFF7C6FF06
:1006400000BF03B05DF804FBE428000000B583B0F0
:10065000002301930AE0094A019B13441B780321FC
:100660001846FFF71BFF019B01330193019B032BEE
:10067000F1D900BF00BF03B05DF804FBE82800001B
:1006800000B583B00190019B03F00103002B01D062
:10069000FFF7C2FF019B03F00203002B01D0FFF71D
:1006A000D5FF00BF03B05DF804FB000086B00390E7
:1006B0000291019201238DF817309DF81730214ADD
:1006C000039B13601F4A029B53601E4A019B936069
:1006D000039B44F20102934213D0039B44F20202B3
:1006E000934221D1019B174AD360164BDB681B88CC
:1006F0001A46144B9A61134BDB685B68114AD3614D
:1007000012E0019B0F4A13610E4B1B699B680D4A57
:1007100053610C4B1B691B680A4A9361094B1B69A7
:100720005B68084AD36100BF72B600BF00BF9DF886
:100730001730DBB2002BFAD162B600BF00BF06B0A3
:10074000704700BF0C00002000B583B002900091FC
:10075000019244F2010071466A4600F003F803B0CA
:1007600000BD00BF00B587B003900291019272B640
:1007700000BF039B44F20102934207D0039B44F263
:100780000202934205D1019B059303E0019B049370
:1007900000E000BF074B1B6803F00103002B00D0F3
:1007A00000BE019A02990398FFF780FF00BF07B0CF
:1007B0005DF804FBF0ED00E000B585B00346009164
:1007C000ADF80630BDF80630ADF80830009B039355
:1007D00002AB1A46002144F20200FFF7C3FF00BF3C
:1007E00005B05DF804FB000082B003468DF80730C9
:1007F0009DF8073003F01F0205499DF907305B099A
:10080000012000FA02F241F8232000BF02B0704735
:1008100000E100E082B0034600918DF807309DF9B9
:100820000730002B0CDA009BDAB20C499DF8073038
:1008300003F00F03043B5201D2B20B441A7609E0D5
:10084000009BDAB206499DF907305201D2B20B443F
:1008500083F8002300BF02B0704700BF00ED00E046
:1008600000E100E000B583B003460A468DF807308A
:1008700013468DF806309DF80630072B03D908493A
:100880006B20FFF799FF9DF806209DF90730114670
:100890001846FFF7BFFF00BF03B05DF804FB00BFC1
:1008A000EC28000000B583B003468DF807309DF9B1
:1008B00007301846FFF798FF00BF03B05DF804FB50
:1008C00000B583B00346ADF80630BDF806301846D3
:1008D00000F026F803461B68012B0CBF0123002300
:1008E000DBB2184603B05DF804FB00B585B00346E3
:1008F000ADF80630BDF80630184600F011F8034692
:100900001A4600231360BDF80630184600F008F8B8
:1009100003461B680393039B00BF05B05DF804FB0F
:1009200082B00346ADF80630BDF8063003F18043CF
:1009300003F5C043184602B07047000082B0019032
:10094000034A019BC2F8043300BF02B0704700BFE6
:100950000060004082B00190034BD3F80423019B58
:100960001340184602B070470060004082B001900A
:10097000084A019B03F5A27352F82330054943F05E
:100980000102019B03F5A27341F8232000BF02B0CE
:10099000704700BF0060004084B00390029113468E
:1009A0008DF80730144A039B03F5A27352F82330E5
:1009B000114923F44F3323F44073039A02F5A272D2
:1009C00041F822300C4A039B03F5A27352F823200E
:1009D000029B1B0203F47C519DF807301B0403F4B7
:1009E00040330B4304491A43039B03F5A27341F8B8
:1009F000232000BF04B070470060004082B0019027
:100A0000054A019B03F5A27352F823301B0A03F039
:100A10003F03184602B070470060004082B001906A
:100A2000064A019B03F5A27352F823301B0C03F016
:100A30000303DBB2184602B0704700BF00600040FD
:100A400000B583B00190019B1B682F2B04D90B4983
:100A500040F2CD10FFF7B0FE019B1B681F2B02D8A0
:100A60004FF0A04306E0019B1B6803F01F02019BAF
:100A70001A60034B184603B05DF804FB1C29000004
:100A80000003005000B585B00190084611461A4693
:100A900003468DF803300B468DF8023013468DF86F
:100AA000013001AB1846FFF7CBFF03909DF8032000
:100AB0009DF802305B001A439DF801309B001A43F9
:100AC0009DF818301B0242EA03019DF81C301B04FC
:100AD000019A1943039B02F5E07243F8221000BF0C
:100AE00005B05DF804FB00B585B003900B468DF8AA
:100AF0000B309DF80B300022019200220092002260
:100B000000210398FFF7BEFF00BF05B05DF804FBAE
:100B100000B585B0019001AB1846FFF791FF039037
:100B2000019A039B02F5E07253F8223023F002038E
:100B30000293019A039B02F5E072029943F8221096
:100B400000BF05B05DF804FB00B585B001900B4611
:100B50008DF8033001AB1846FFF772FF0390019A3E
:100B6000039B02F5E07253F82230019A23F44031DE
:100B7000039B02F5E07243F82210019A039B02F5F1
:100B8000E07253F822309DF8032012041146019AB6
:100B90001943039B02F5E07243F8221000BF05B031
:100BA0005DF804FB00B585B0019001AB1846FFF776
:100BB00047FF0390039800F020F80246019B22FAB9
:100BC00003F303F00103184605B05DF804FB00B51C
:100BD00085B0019001AB1846FFF732FF0390019AF0
:100BE000039B02F5E07253F822301B0C03F0030361
:100BF000DBB2184605B05DF804FB82B00190019BA2
:100C0000D3F81035184602B07047000000B589B01F
:100C1000039002910192184A05AB92E8030083E821
:100C20000300039A029B1344022B04D9134940F298
:100C3000FD20FFF7C1FD039B079311E0079B9B007D
:100C400008AA134453F80C3C1846FFF7D6FF024697
:100C5000019B1A60019B04330193079B01330793A7
:100C6000039A029B1344079A9A42E7D300BF00BF3E
:100C700009B05DF804FB00BF4C2900001C290000EE
:100C800084B001900091009B0393019BDB080293C9
:100C9000019B03F0070301930122019B02FA03F376
:100CA0000399029A0A4412781340184604B0704718
:100CB00084B001900091009B0393019BDB08029399
:100CC000019B03F007030193039A029B13441B78D3
:100CD0005AB20121019B01FA03F35BB2134359B2EB
:100CE000039A029B1344CAB21A7000BF04B0704743
:100CF00082B001900C4A019B1344243393F90030D5
:100D0000002B09DB084A019B1344243393F900307C
:100D1000072B01DC012300E0002303F00103DBB219
:100D2000184602B0704700BF2C00002082B001902E
:100D3000064A019B1344243393F90030072BCCBFA0
:100D400001230023DBB2184602B070472C000020BC
:100D500082B00190064A019B1344243393F900307A
:100D6000DB43DBB2DB09DBB2184602B0704700BFE1
:100D70002C00002084B00390029101928DF8033082
:100D8000029B59B20E4A039B134424330A461A703D
:100D90000B49029B019A41F823209DF8033083F010
:100DA0000103DBB2002B08D0029B083B039A51B22F
:100DB000034A13440A4683F8542000BF04B0704726
:100DC0002C00002082B00190044A019B134424337C
:100DD000FF221A7000BF02B0704700BF2C00002035
:100DE00000B583B0019004490198FFF761FF00BF8F
:100DF00003B05DF804FB00BF8100002082B00190C9
:100E0000044A019B1344243393F90030184602B07E
:100E1000704700BF2C00002082B00190034A019B64
:100E200052F82330184602B0704700BF2C00002053
:100E300000B589B00390029113468DF80730FF2367
:100E40008DF81F309DF80730002B01D0002300E003
:100E5000082305939DF80730002B01D0082300E0FC
:100E600009230493059B069314E00F4A069B52F84E
:100E70002330B3F1FF3F0AD19DF80730029A06995B
:100E80000398FFF777FF069B8DF81F3006E0069B5F
:100E900001330693069A049B9A42E6D39DF91F30CC
:100EA000184609B05DF804FB2C00002082B0034610
:100EB0008DF807309DF80730094A4FF0FF3142F8AE
:100EC00023109DF80730072B07D99DF80730083B02
:100ED000034A1344FF2283F8542000BF02B0704736
:100EE0002C00002000B583B0254B93F85B30002B1D
:100EF00003D008230093009B3EE000238DF80730C9
:100F000009E09DF807301846FFF75CFF9DF80730B1
:100F100001338DF807309DF807302F2BF1D90023CE
:100F20008DF8073009E09DF807301846FFF7BEFF3F
:100F30009DF8073001338DF807309DF80730082BF6
:100F4000F1D9062200210F4801F0EBF80621062016
:100F5000FFF788FC0620FFF7A5FC4FF4BE70FFF7F3
:100F6000C4FC4FF00040FFF7E9FC054B012283F879
:100F70005B2000230093009B184603B05DF804FB40
:100F80002C0000208100002000B587B00390029162
:100F90000192039B2F2B04D9364940F20720FFF71B
:100FA0000BFC002305930398FFF7D2FE0346002BAA
:100FB00002D00823059357E0029B9B78C3F34003BC
:100FC000DBB21A4601990398FFF732FF03468DF80A
:100FD00013309DF91330B3F1FF3F43D0029B9B7850
:100FE000C3F38003DBB283F00103DBB2002B13D029
:100FF000029B9B7803F00103DBB2002B03D0039824
:10100000FFF786FD05E0029B5B7819460398FFF722
:101010006AFD0398FFF7E4FE029B9B7803F002034E
:10102000DBB2002B08D09DF91300029B1B781A46F7
:101030000399FFF7B1FC17E09DF91330083B0E4A06
:10104000134493F95410029B1B789B015AB29DF9EB
:101050001330083B0A4351B2074A13440A4683F847
:10106000542001E004230593059B184607B05DF862
:1010700004FB00BF542900002C00002000B589B0FB
:1010800001900B468DF80330019B2F2B04D93D496D
:1010900040F23720FFF790FB0198FFF759FE034617
:1010A000002B04D137494FF40E70FFF785FB0198F0
:1010B000FFF73CFE0346002B2FD00198FFF79EFE62
:1010C0000346083B304A134493F954308DF80F30EF
:1010D0009DF80F309B098DF80E309DF80E30032BD4
:1010E0000BD10198FFF75EFD0346002B01D00323CF
:1010F00000E002238DF81F3008E09DF80E30012B30
:1011000001D1022300E003238DF81F309DF81F302A
:1011100019460198FFF718FD30E00198FFF7E8FD48
:101120000346002B2AD00198FFF768FE034606937A
:10113000069B9BB240339BB29B00ADF81630069BDA
:101140001846FFF713FCBDF816301846FFF7CDFB25
:101150009DF80330002B11D00198FFF74FFE034696
:101160001846FFF759FE0490049B002B06D001227D
:10117000069B02FA03F31846FFF7E0FB00BF09B035
:101180005DF804FB542900002C00002000B599B044
:101190000023179306AB00221A605A604FF4807345
:1011A000ADF85630012314930023169321E0BDF8C7
:1011B00056301846FFF784FB0346002B0ED01498D8
:1011C000FFF7C8FB0346002B08D0BDF85630184681
:1011D000FFF78BFB179A149B13431793149B5B0029
:1011E0001493BDF856300433ADF85630169B0133D6
:1011F0001693169B072BDAD94FF4BE70FFF760FBEE
:101200000346002B0DD04FF4BE70FFF76EFB179B0B
:1012100043F00043179306AB1A4602210020FFF764
:10122000F5FC179BDBB2002B29D00123149300237C
:10123000169321E0149A179B1340002B16D0169892
:10124000FFF7DCFB11901698FFF7E8FB03468DF8DB
:1012500043301698FFF7E0FD0F900F9B002B05D051
:101260009DF843200F9B114611989847149B5B00F3
:101270001493169B01331693169B072BDAD9179BF1
:10128000002B80F2F08000238DF84B3004AB00225D
:101290001A605A60002313930AE0139B9B0018AA5C
:1012A00013444FF0FF3243F8582C139B0133139330
:1012B000139B012BF1D900238DF84B30002316939B
:1012C00078E06B4A169B1344543393F900308DF841
:1012D0003B309DF83B3023F0C0030D93644A169BCE
:1012E0001344543393F90030B3F1FF3F5FD002ABA6
:1012F00019460D98FFF7C4FC0346002B57D09DF804
:101300003B309B098DF833300D98FFF777FD03468E
:101310001846FFF781FD0B900B9B002B03D19DF826
:101320003330032B43D19DF83330032B04D104AB6E
:1013300019460D98FFF7BCFC0D98FFF748FC0346D3
:101340008DF82B3006AB19460D98FFF799FC0990E4
:10135000099B002B03D09DF82B30022B06D0099B54
:10136000002B24D19DF82B30032B20D19DF8333056
:10137000032B13D19DF82B30022B01D1032300E066
:1013800002238DF823309DF8233019460D98FFF77E
:10139000DBFB9DF84B3001338DF84B300B9B002B62
:1013A00005D09DF833200B9B11460D989847169B4E
:1013B00001331693169B002B83D09DF84B30002BE6
:1013C0004CD001238DF84A306B461A46022100208A
:1013D000FFF71CFC0023139314E0139B9B0018AA37
:1013E000134453F8602C139B9B0018A90B4453F82B
:1013F000483C9A4203D000238DF84A3005E0139B05
:1014000001331393139B012BE7D99DF84A30002B2E
:1014100003D000238DF84B3020E0002313931AE013
:10142000139B9B0018AA134453F8602C139B9B003A
:1014300018A90B4443F8482C139B9B0018AA13448B
:1014400053F8502C139B9B0018A90B4443F8582CBD
:10145000139B01331393139B012BE1D99DF84B3060
:10146000002B7FF428AF00BF19B05DF804FB00BF6C
:101470002C00002000B583B00190019B1B682F2B2E
:1014800004D90B4940F2CD10FFF796F9019B1B6878
:101490001F2B02D84FF0A04306E0019B1B6803F00E
:1014A0001F02019B1A60034B184603B05DF804FB52
:1014B000A42900000003005000B585B00190084643
:1014C00011461A4603468DF803300B468DF802305C
:1014D00013468DF8013001AB1846FFF7CBFF0390A0
:1014E0009DF803209DF802305B001A439DF80130FF
:1014F0009B001A439DF818301B0242EA03019DF835
:101500001C301B04019A1943039B02F5E07243F857
:10151000221000BF05B05DF804FB00B585B0039054
:10152000002301930023009300230122012103984B
:10153000FFF7C2FF00BF05B05DF804FB08B50D2042
:10154000FFF7EBFF0E20FFF7E8FF0F20FFF7E5FFA7
:101550001020FFF7E2FF00BF08BD00B587B0019083
:101560000091019B5B680593019B5B680099019862
:10157000984703468DF813309DF81330022B12D193
:10158000019B5B68039305238DF8083002AA059B35
:1015900011460198984704238DF8083002AA039B4E
:1015A00011460198984700BF07B05DF804FB0000A2
:1015B00000B585B001900B468DF803309DF80330DF
:1015C000002B2BD0019B0B2B06D100238DF80C3068
:1015D000144800F079FD1CE0019B0C2B06D101237F
:1015E0008DF80C30104800F06FFD12E0019B182BB5
:1015F00006D102238DF80C300C4800F065FD08E0A0
:10160000019B192B05D103238DF80C30084800F0FD
:101610005BFD03AB19460748FFF79FFF00BF05B00E
:101620005DF804FBD4290000E8290000FC29000033
:10163000142A00008800002000B587B0FFF752FC94
:101640000490049B0393039B002B04D01D4A5B2151
:101650000398FFF779F81C4A01AB1268114619800C
:101660000233120C1A7003238DF805300023059302
:101670001FE0164A059B13441B78184601AB144A19
:101680001946FFF781FC0490049B0293029B002BF8
:1016900004D00C4A62210298FFF756F80B4A059BCA
:1016A00013441B7801211846FFF7E8FC059B013322
:1016B0000593059B032BDCDD00BF00BF07B05DF881
:1016C00004FB00BF242A00009C2A00000000002028
:1016D000B115000008B50120FEF7D2FFFFF72EFF7D
:1016E000024800F06DFAFFF7A7FFFEE78800002030
:1016F00000B585B00190019B002B0AD0074B43F049
:1017000001030393019B9B010293039B029898475B
:1017100000E000BF05B05DF804FB00BF902B0000A7
:1017200000B583B00190019B1B682F2B04D90B4996
:1017300040F2CD10FFF740F8019B1B681F2B02D829
:101740004FF0A04306E0019B1B6803F01F02019BC2
:101750001A60034B184603B05DF804FBA02A000092
:101760000003005000B585B0019001AB1846FFF7AB
:10177000D7FF0390019B012202FA03F31946039855
:1017800000F018F800BF05B05DF804FB00B585B0A7
:10179000019001AB1846FFF7C3FF0390019B0122A4
:1017A00002FA03F31946039800F00EF800BF05B0E3
:1017B0005DF804FB82B001900091019B009AC3F890
:1017C000082500BF02B0704782B001900091019BD4
:1017D000009AC3F80C2500BF02B0704700B583B073
:1017E0000190019B002B0AD04FF47A70FFF780FF25
:1017F000019B013B0193019B002BF5D100E000BF51
:1018000003B05DF804FB000000B585B00190019BBA
:101810001B781946104800F037FC00238DF80F3074
:101820000EE09DF80F300D4AD35C1846FFF7AEFF6F
:101830003220FFF7D3FF9DF80F3001338DF80F30C2
:10184000019B1B789DF80F209A42EAD300BF00BF8E
:1018500005B05DF804FB00BFD02A000004000020A2
:1018600000B583B001900199034800F00DFC00BF62
:1018700003B05DF804FB00BFE42A000000B585B0AA
:1018800001900F4800F020FC00238DF80F300EE08F
:101890009DF80F300B4AD35C1846FFF763FF3220E8
:1018A000FFF79CFF9DF80F3001338DF80F309DF846
:1018B0000F30032BECD900BF00BF05B05DF804FB6F
:1018C000EC2A00000400002000B587B0019000233E
:1018D00005932EE00023049309E01A4A049B134465
:1018E0001B781846FFF752FF049B01330493019BBA
:1018F0001B781A46049B9342EFDB6420FFF76EFFD0
:101900000023039309E00F4A039B13441B781846F6
:10191000FFF728FF039B01330393019B1B781A46B3
:10192000039B9342EFDB6420FFF758FF059B0133D5
:101930000593059B632BCDDD00BF00BF07B05DF8AD
:1019400004FB00BF0400002000B583B001900091AB
:10195000009B1B78052B30D801A252F823F000BF62
:1019600099190000A3190000AD190000B719000073
:1019700079190000891900000198FFF745FF114807
:10198000FFF76EFF002318E00198FFF777FF0E487E
:10199000FFF766FF002310E0019B0C4A5A60022308
:1019A0000BE0019B094A5A60022306E0019B084AAA
:1019B0005A60022301E00123FFE7184603B05DF8F7
:1019C00004FB00BFF82A0000082B0000D519000016
:1019D000A11A000000B583B001900091009B1B7814
:1019E000052B51D801A252F823F000BF251A0000A0
:1019F0004D1A0000751A00007F1A0000051A000039
:101A0000151A00000198FFF7FFFE2148FFF728FF95
:101A1000002339E00198FFF731FF1E48FFF720FF50
:101A2000002331E0019B1B78032B0DD8019B1B7811
:101A30000133DAB2019B1A700198FFF71FFF01987A
:101A4000FFF7E2FE00231FE001231DE0019B1B784E
:101A5000002B0DD0019B1B78013BDAB2019B1A7061
:101A60000198FFF70BFF0198FFF7CEFE00230BE074
:101A7000012309E0019B084A5A60022304E0019B0C
:101A8000064A5A600223FFE7184603B05DF804FBDC
:101A9000182B0000242B0000A11A00004919000097
:101AA00000B583B001900091009B1B78052B39D8BD
:101AB00001A252F823F000BF091B00000D1B00001B
:101AC000111B00001B1B0000D11A0000F31A0000BC
:101AD000019B1B78002B0AD00198FFF795FE134855
:101AE000FFF7BEFE0198FFF7EFFE02231AE0012385
:101AF00018E00198FFF7C2FE019B0D4A5A600D489D
:101B0000FFF7AEFE00230DE001230BE0012309E007
:101B1000019B074A5A60022304E0019B064A5A606F
:101B20000223FFE7184603B05DF804FB382B0000E2
:101B30003D1B0000582B00004919000000B583B080
:101B400001900091009B1B78052B2DD801A252F823
:101B500023F000BF8D1B0000911B0000951B0000AF
:101B60009F1B00006D1B00007D1B00000198FFF70C
:101B70004BFE0F48FFF774FE002315E00198FFF7B6
:101B80007DFE0C48FFF76CFE00230DE001230BE007
:101B9000012309E0019B084A5A60022304E0019BEB
:101BA000064A5A600223FFE7184603B05DF804FBBB
:101BB0006C2B0000782B0000A11A000049190000CE
:101BC00000B585B0019004238DF80C30019B134AB9
:101BD0005A60019B00221A7000238DF80F300EE02E
:101BE000FEF707FD3220FFF7F9FDFEF7EFFC32208C
:101BF000FFF7F4FD9DF80F3001338DF80F309DF89D
:101C00000F30092BECD9019B5B6803AA11460198A0
:101C1000984700BF05B05DF804FB00BF49190000FC
:101C2000BFF34F8F00BF074BDB6803F4E062054949
:101C3000054B1343CB60BFF34F8F00BF00BF00BF06
:101C4000FCE700BF00ED00E00400FA05024B034A88
:101C50001A6000BF704700BF080000200090D0034A
:101C600008B500F027F90346002B0ED04FF0804353
:101C70000022C3F80C214FF080430022C3F810214A
:101C80004FF080430022C3F8382500F037F90346AF
:101C9000002B76D04FF080537D4AD3F80434C2F83D
:101CA00020354FF080537A4AD3F80834C2F82435EF
:101CB0004FF08053764AD3F80C34C2F828354FF0F1
:101CC0008053734AD3F81034C2F82C354FF0805348
:101CD0006F4AD3F81434C2F830354FF080536C4A51
:101CE000D3F81834C2F834354FF08053684AD3F82B
:101CF0001C34C2F840354FF08053654AD3F8203485
:101D0000C2F844354FF08053614AD3F82434C2F806
:101D100048354FF080535E4AD3F82834C2F84C352A
:101D20004FF080535A4AD3F82C34C2F850354FF054
:101D30008053574AD3F83034C2F854354FF08053AB
:101D4000534AD3F83434C2F860354FF08053504AC8
:101D5000D3F83834C2F864354FF080534C4AD3F886
:101D60003C34C2F868354FF08053494AD3F84034C8
:101D7000C2F86C354FF08053454AD3F84434C2F86A
:101D8000703500F0DFF80346002B02D0414B424A89
:101D90001A6000F0E9F80346002B03D03F4BFB220A
:101DA000C3F8182500F0F2F80346002B0AD03C4B8C
:101DB0001B6823F00F023B4B1B6803F00F033849ED
:101DC00013430B6000F0F4F80346002B03D0364BAE
:101DD0004FF400721A6000F0FDF80346002B0DD09E
:101DE0004FF08043D3F8003403F00103002B05D0FB
:101DF0004FF080436FF00102C3F800242B4BD3F85F
:101E000088302A4A43F47003C2F88830BFF34F8FFA
:101E100000BFBFF36F8F00BF4FF01023D3F8003225
:101E2000002B05DB4FF01023D3F80432002B2BDA04
:101E30001F4B0122C3F8042500BF1D4BD3F800340B
:101E4000002BFAD04FF010231222C3F8002200BF5B
:101E5000174BD3F80034002BFAD04FF01023122286
:101E6000C3F8042200BF124BD3F80034002BFAD081
:101E70000F4B0022C3F8042500BF0D4BD3F80034EC
:101E8000002BFAD0FFF7CCFEFFF7E0FE00BF08BD45
:101E900000C000408C5600404881030000F0004024
:101EA000E40E0040580200104096024000ED00E0B1
:101EB00000E001400F4B1B68082B17D10E4B1B682D
:101EC000002B01D1012312E00B4B1B68012B01D128
:101ED00001230CE0084B1B68022B01D1012306E013
:101EE000054B1B68032B01D1012300E00123184699
:101EF000704700BF30010010340100100F4B1B6809
:101F0000082B17D10E4B1B68002B01D1012312E0C7
:101F10000B4B1B68012B01D101230CE0084B1B6804
:101F2000022B01D1012306E0054B1B68032B01D1D5
:101F3000012300E001231846704700BF3001001064
:101F400034010010064B1B68082B05D1054B1B689C
:101F5000002B01D1012300E000231846704700BF89
:101F60003001001034010010064B1B68082B05D10E
:101F7000054B1B68002B01D1012300E0002318460C
:101F8000704700BF3001001034010010064B1B6881
:101F9000082B05D1054B1B68002B01D1012300E064
:101FA00000231846704700BF3001001034010010B4
:101FB000064B1B68082B05D1054B1B68002B01D174
:101FC000012300E000231846704700BF30010010D5
:101FD000340100100F4B1B68082B17D10E4B1B68E8
:101FE000002B01D1012312E00B4B1B68012B01D107
:101FF00001230CE0084B1B68022B01D1012306E0F2
:10200000054B1B68032B01D1012300E00123184677
:10201000704700BF300100103401001010B50446B5
:102020000846A2684AB12368616803F1010C8C4537
:1020300008BF00208B4208D2D054E3682BB121683E
:102040006268914201D22146984723680133236098
:1020500010BD70B54C1E09D41646C5B2294630468F
:10206000FFF7DCFF013CB4F1FF3FF7D170BD10F08A
:10207000100F08D108B510F4007F14BF30202020C5
:10208000FFF7E7FF08BD70470FB410B586B008AB87
:1020900053F8044B0593002303936FF0004302931E
:1020A000084B049300F0BCFB059A214601A800F000
:1020B0009BF8044600F0B5FB204606B0BDE8104092
:1020C00004B07047D103000070B5054600F0A8FBCE
:1020D000013D002615F8010F48B13146FEF778F9A9
:1020E0000446B0F1FF3FF5D100F09BFB06E0002174
:1020F0000A20FEF76DF9044600F093FB204670BD00
:10210000037853B159B10144034613F8012F12B1BA
:102110008B42FAD10B46181A70470346FBE7034679
:10212000F9E78446002A2DD010F0030F04D000F800
:10213000011B013A26D0F7E7C9B241EA012141EA81
:102140000141202A12D3A2F120022DE9F0030B460F
:102150000C460D460E460F4688468946A0E8FA030F
:10216000203AFBD2BDE8F00320320BD0042A05D37D
:1021700040F8041B043A05D0042AF9D200F8011BE8
:10218000013AFBD16046704700F1010110F0030FE6
:1021900011D010F8012B002A23D010F0030F0AD021
:1021A00010F8012B002A1CD010F0030F03D010F8F8
:1021B000012B002A15D02DE970004FF001324FF0AD
:1021C000803350F8044BA4EB020525EA04051D40BA
:1021D00000D1F6E7A0F1040070BC10F8012B002A32
:1021E000FBD1A0EB010070472DE9F04F89B0074605
:1021F0000392002303600C4614F8011B002900F031
:10220000FC82DFF818B5EBE2002507E05E2868D114
:1022100045F4805501E045F040051C46234613F87F
:10222000010B3028F2D81F2837D9A0F12002102A3C
:1022300033D801A151F822F0172200009B220000A0
:102240009B2200007D2200009B2200009B220000B8
:102250009B220000832200009B2200009B220000A2
:102260009B220000892200009B2200008F22000098
:102270009B2200009B2200009522000045F0800573
:10228000CBE745F40045C8E745F02005C5E745F034
:102290001005C2E745F40075BFE72A2821D1039A4B
:1022A000111D0391D2F800A0BAF1000FBCBFCAF112
:1022B000000A45F010051878A31C2AEAEA7A2E28AD
:1022C00026D00021742847D07A2845D06C2800F009
:1022D000A8804C2800F0AB80682800F0B8801C462D
:1022E0003DE0A0F13002D2B2092A88BF4FF0000AC7
:1022F000E3D84FF0000A0AEB8A0A303800EB4A0AAA
:1023000013F8010BA0F13002D2B2092AF3D9D4E7B5
:1023100018782A280AD1039A111D03911168587858
:1023200002330029CEDB45F48075CBE70133A0F101
:102330003002D2B2092A88BF0021F4D8002101EB73
:102340008101303800EB410113F8010BA0F130029C
:10235000D2B2092AF3D9E4E71C4614F8010B00288D
:1023600000F05782A0F12503DBB2532B62D8A0F115
:102370002503532B5ED8DFE813F076005D005D0087
:102380005D005D005D005D005D005D005D005D0065
:102390005D005D005D005D005D005D005D005D0055
:1023A0005D005D005D005D005D005D005D005D0045
:1023B0005D005D005D005D005D005D005D005D0035
:1023C0005D005D005D005D005D005D005D005D0025
:1023D0005D005D005D005D005D005D005D005D0015
:1023E000EC005D005D005D005D005D005D005D0076
:1023F0005D005D005D007B0021015D005D005D0012
:102400005D0021015D005D005D005D0095000F0134
:10241000D2005D005D00A6005D001A015D005D0058
:10242000EE001C4614F8010B45F0010597E745F056
:1024300001051C46B54B1E68002E00F0CE8103AB93
:102440000193009153462A463946B047C5E11878B2
:10245000682803D05C1C45F0040580E745F00805BA
:102460009C1C58787BE725213846FFF7D7FDB4E15F
:10247000039B1A1D03921E780AF1FF3A3A46514611
:102480002846FFF7F4FD31463846FFF7C7FDA94659
:1024900019F0100F00F0A1813A4651462020FFF7B5
:1024A000D8FD9AE115F0080F06D03A68039B191D74
:1024B00003911B681A7090E1039B1A1D03921B681D
:1024C0003A681A6089E1039B1A1D0392D3F80080D1
:1024D0008F4BB8F1000F08BF9846464625F40079A7
:1024E00015F4807F16D04046FFF70AFE0546AAEB9A
:1024F000050A3A4651464846FFF7B9FD002DC7D0B8
:1025000016F8011B3846FFF789FDA8EB0603EB42DE
:10251000F6D1BDE74046FFF737FE0546E7E7039BE8
:102520001A1D03921B6815F0800F0CBF002623268E
:1025300045F4807508211A46002B00F02A8105AB6E
:102540004FF0000805F4005CA64660468C46014644
:10255000D2E045F4005515F0800F1BD043F2780609
:1025600043F25803782818BF1E4615F4807F01D027
:1025700025F4007515F4804F32D0039B1A1D039289
:102580001B6815F0040F1FD01BB2002B20DA5B4232
:102590002D262DE00026E8E715F0800F0CBF002661
:1025A000302615F4807FE5D025F40075E2E715F4B8
:1025B000807F07D025F400750026DBE745F48045D1
:1025C0000026D7E70026D5E715F0080FDDD0DBB2EF
:1025D00015F0200F61D115F0400F18BF202607E03D
:1025E000039B1A1D03921B6815F0040F50D09BB279
:1025F00015F4807F14BF25F4007501215838202878
:1026000000F2AF8001A252F820F000BF3725000091
:102610006327000063270000632700006327000092
:102620006327000063270000632700006327000082
:10263000632700006327000063270000C72600000F
:102640006327000063270000632700006327000062
:10265000C7260000632700006327000063270000EF
:1026600063270000632700009F2600003725000035
:102670006327000063270000632700006327000032
:10268000C7260000632700006327000037250000ED
:1026900015F0080FACD0DBB2AAE72B26A8E71A4644
:1026A0004FF00008002B5ED005A84FF0000803F0A3
:1026B0000703303300F8013B08F10108D208134644
:1026C000002AF4D14FE018464FF00008002B4AD002
:1026D0004FF0000805F4004E4FF02C0973468E466B
:1026E00019462FE002F00F000A4C205C03F8010BA2
:1026F00008F10108120906D00029F3D002F00F00FA
:10270000054C205CF2E7744661462CE09000002006
:10271000B82B0000982B0000A82B0000CDCCCCCC0F
:1027200008AB03EB080CABFB0032D20802EB8203D0
:10273000A0EB430330330CF80C3C08F101080928E6
:102740000DD910460029EBD008F00303032BE7D185
:1027500008AB434403F80C9C08F10108E0E771461C
:1027600001E04FF00008A1EB080121EAE179AAEBB2
:10277000090AAAEB080AFF2E0ED9AAF1020AC6F32B
:1027800007213846FFF74AFCF1B23846FFF746FC0E
:1027900004E04FF00008E6E7002E3DD13A465146EE
:1027A0002846FFF764FC3A4649463020FFF751FCC3
:1027B000B8F1000F0EDD0DF1140908F1FF38C8441F
:1027C00098F8001046463846FFF728FCC14508F146
:1027D000FF38F5D115F0100F09D114F8011B61B1C4
:1027E00025293FF411AD3846FFF718FCF5E73A46C6
:1027F00051462020FFF72DFCEFE7BB682BB13A686C
:1028000079688A423CBF00219954386809B0BDE814
:10281000F08F4FF0FF30F9E70AF1FF3AB4E700BF5D
:102820007047704710B504460146172000F008F8BD
:1028300000280CBF20464FF0FF3010BD7047704796
:1028400038B504460D46FFF7F9FF074B1D6044F00D
:102850008004064B1C601A461368002BFCD1FFF75E
:10286000EEFF014B186838BD98000020940000204E
:102870002E2E2F2E2E2F2E2E2F2E2E2F2E2E2F2E73
:102880002E2F6D6F64756C65732F6E7266782F686E
:10289000616C2F6E72665F6770696F2E6800000052
:1028A0002F686F6D652F646E6B3132342F44657302
:1028B0006B746F702F507269796573682F6E524612
:1028C000355F53444B2F636F6D706F6E656E74731D
:1028D0002F626F617264732F626F617264732E6313
:1028E000000000000D0E0F100B0C18192E2E2F2EAD
:1028F0002E2F2E2E2F2E2E2F2E2E2F2E2E2F696E78
:10290000746567726174696F6E2F6E7266782F6E70
:102910007266785F676C75652E6800002E2E2F2E0C
:102920002E2F2E2E2F2E2E2F2E2E2F2E2E2F6D6F42
:1029300064756C65732F6E7266782F68616C2F6E8C
:1029400072665F6770696F2E6800000000000050BB
:10295000000300502F686F6D652F646E6B31323449
:102960002F4465736B746F702F507269796573684B
:102970002F6E5246355F53444B2F6D6F64756C65F7
:10298000732F6E7266782F647269766572732F7317
:1029900072632F6E7266785F6770696F74652E63FD
:1029A000000000002E2E2F2E2E2F2E2E2F2E2E2FFB
:1029B0002E2E2F2E2E2F6D6F64756C65732F6E72F9
:1029C00066782F68616C2F6E72665F6770696F2E14
:1029D000680000005369676E616C3A20494E435F9E
:1029E0004C45440D000000005369676E616C3A204D
:1029F0004445435F4C45440D000000005369676E39
:102A0000616C3A2053544152545F50415553450D27
:102A1000000000005369676E616C3A2041425254D5
:102A20000D0000002F686F6D652F646E6B313234BE
:102A30002F4465736B746F702F507269796573687A
:102A40002F6E5246355F53444B2F6578616D706C25
:102A500065732F53746174655F4D616368696E655A
:102A60005F576F726B6573706163652F5374617428
:102A7000655F4D616368696E655F30345F554D4CCD
:102A80005F46534D5F53746174655F68616E646C3B
:102A900065722F6D61696E2E6300000002000200F6
:102AA0002E2E2F2E2E2F2E2E2F2E2E2F2E2E2F2E41
:102AB0002E2F6D6F64756C65732F6E7266782F683C
:102AC000616C2F6E72665F6770696F2E6800000020
:102AD00043757272656E74204C4544733A202564C8
:102AE0000D0A000025730D0A00000000436C6561AB
:102AF00072206C65640D000049444C4520535441DC
:102B000054450D0A00000000457869742066726F14
:102B10006D3A2049444C4500536574204C656473FC
:102B200000000000457869742066726F6D3A204C91
:102B300045445F53455400004150504C4943415473
:102B4000494F4E20697320626C696E6B696E672015
:102B50004C4544730D0A0000457869742066726F15
:102B60006D3A20424C494E4B0000000050415553F5
:102B700045204C6564730000457869742066726F67
:102B80006D3A205041555345000000000000000000
:102B90000338FDD8704700003031323334353637D2
:102BA00038396162636465663031323334353637C3
:0F2BB0003839414243444546286E756C6C290004
:0C2BC0000B0C18190D0E0F100090D00324
:040000030000037581
:00000001FF
