:1000000000000420750300005D0300005F03000092
:1000100061030000630300006503000000000000AE
:100020000000000000000000000000006703000066
:1000300069030000000000006B0300006D03000076
:100040006F0300006F0300006F0300006F030000E8
:100050006F0300006F0300006F0300006F030000D8
:100060006F0300006F0300006F0300006F030000C8
:100070006F0300006F0300006F0300006F030000B8
:100080006F0300006F0300006F0300006F030000A8
:100090006F0300006F0300006F0300006F03000098
:1000A0006F0300006F0300006F0300006F03000088
:1000B0006F0300006F03000000000000000000005C
:1000C0006F0300006F0300006F0300006F03000068
:1000D0006F0300006F0300006F0300006F03000058
:1000E0006F0300006F0300006F03000000000000BA
:1000F000000000006F030000000000006F0300001C
:1001000000000000000000000000000000000000EF
:1001100000000000000000000000000000000000DF
:1001200000000000000000000000000000000000CF
:1001300000000000000000000000000000000000BF
:1001400000000000000000000000000000000000AF
:10015000000000000000000000000000000000009F
:10016000000000000000000000000000000000008F
:10017000000000000000000000000000000000007F
:10018000000000000000000000000000000000006F
:10019000000000000000000000000000000000005F
:1001A000000000000000000000000000000000004F
:1001B000000000000000000000000000000000003F
:1001C000000000000000000000000000000000002F
:1001D000000000000000000000000000000000001F
:1001E000000000000000000000000000000000000F
:1001F00000000000000000000000000000000000FF
:10020000354936480A1A02D0072291438D463449AF
:1002100034480A1A06D00722914381F30988022242
:1002200082F3148830483149314A00F044F83148AB
:100230003149324A00F03FF831483249324A00F041
:100240003AF832483249334A00F035F832483349F7
:10025000334A00F030F833483349344A00F02BF881
:1002600033483449344A00F026F8344834490022EF
:1002700000F02CF833483449002200F027F83348C6
:100280003349091A082902DB002202604160314A21
:1002900090471F481F49884205D00268043003B4C4
:1002A000904703BCF7E700208646EC46002000217B
:1002B000294A9047FEE7884207D0521A05D00378B2
:1002C00001300B700131013AF9D17047884202D0F8
:1002D00002700130FAE770470000042000E00320BC
:1002E0000000042000000420080D00000000002091
:1002F00008000020D0030000D0030000C40C000060
:10030000080D00000000002000000020C40C0000C8
:10031000C40C0000C40C0000C40C0000C40C00009D
:10032000C40C0000C40C0000C40C0000060D00004A
:10033000100D000008000020080000200800002028
:10034000290000202C0000202C0000202C00002080
:100350002C2000209D03000081080000FEE7FEE73E
:10036000FEE7FEE7FEE7FEE7FEE7FEE7FEE7FEE765
:1003700000F002B8FFF7FCBF0F484FF007018843B9
:1003800085460E4880470E48016841F470010160BF
:10039000BFF34F8FBFF36F8FFFF732BF09480A4992
:1003A0000A4A884207D0521A05D0037801300B70F0
:1003B0000131013AF9D17047000004200909000019
:1003C00088ED00E0C40C00000000002000000020C8
:1003D00086B003900291019201238DF817309DF8A9
:1003E0001730214A039B13601F4A029B53601E4A29
:1003F000019B9360039B44F20102934213D0039B41
:1004000044F20202934221D1019B174AD360164B5A
:10041000DB681B881A46144B9A61134BDB685B68D8
:10042000114AD36112E0019B0F4A13610E4B1B6905
:100430009B680D4A53610C4B1B691B680A4A936108
:10044000094B1B695B68084AD36100BF72B600BFE5
:1004500000BF9DF81730DBB2002BFAD162B600BFA7
:1004600000BF06B0704700BF0800002000B587B08D
:1004700003900291019272B600BF039B44F2010205
:10048000934207D0039B44F20202934205D1019BA1
:10049000059303E0019B049300E000BF074B1B683A
:1004A00003F00103002B00D000BE019A02990398CB
:1004B000FFF78EFF00BF07B05DF804FBF0ED00E032
:1004C00000B585B003460091ADF80630BDF80630A2
:1004D000ADF80830009B039302AB1A46002144F2AA
:1004E0000200FFF7C3FF00BF05B05DF804FB00008A
:1004F00000B585B00190019B002B0AD0074B43F05B
:1005000001030393019B9B010293039B029898476D
:1005100000E000BF05B05DF804FB00BF000D000067
:1005200000B583B00190019B002B0AD04FF47A7084
:10053000FFF7DEFF019B013B0193019B002BF5D1EF
:1005400000E000BF03B05DF804FB000000B583B01D
:100550000190019B1B682F2B04D90B4940F2CD1051
:10056000FFF7AEFF019B1B681F2B02D84FF0A04383
:1005700006E0019B1B6803F01F02019B1A60034BFE
:10058000184603B05DF804FBC40C000000030050E3
:1005900000B585B00190084611461A4603468DF80D
:1005A00003300B468DF8023013468DF8013001AB55
:1005B0001846FFF7CBFF03909DF803209DF802300B
:1005C0005B001A439DF801309B001A439DF81830D8
:1005D0001B0242EA03019DF81C301B04019A1943D7
:1005E000039B02F5E07243F8221000BF05B05DF8EE
:1005F00004FB00B585B00390002301930023009312
:100600000023012201210398FFF7C2FF00BF05B0BC
:100610005DF804FB00B585B003900B468DF80B30F8
:100620009DF80B300022019200220092002200214E
:100630000398FFF7ADFF00BF05B05DF804FB00B500
:1006400085B0019001AB1846FFF780FF0390019B36
:10065000012202FA03F31946039800F035F800BFAF
:1006600005B05DF804FB00B585B0019001AB1846FC
:10067000FFF76CFF0390019B012202FA03F3194676
:10068000039800F02BF800BF05B05DF804FB00B53F
:1006900085B0019001AB1846FFF758FF039003980F
:1006A00000F00AF80246019B22FA03F303F001036B
:1006B000184605B05DF804FB82B00190019BD3F8A9
:1006C0001035184602B0704782B001900091019B2E
:1006D000009AC3F8082500BF02B0704782B00190AD
:1006E0000091019B009AC3F80C2500BF02B070472F
:1006F00000B583B00B20FFF7CAFF0346002B14BFE1
:10070000012300238DF807300C20FFF7C0FF0346BC
:10071000002B14BF012300238DF806309DF807300D
:1007200083F00103DBB2002B09D0144B1B78002BA4
:1007300005D0124A9DF807301370002319E09DF888
:10074000063083F00103DBB2002B09D00C4B1B7881
:10075000002B05D00A4A9DF806301370012308E0EB
:10076000064A9DF807301370054A9DF8063013704D
:100770000223184603B05DF804FB00BF0000002010
:100780000100002000B583B003468DF807303B4BD5
:100790001B78042B6DD801A252F823F0B10700009A
:1007A000C7070000F30700001F0800004B08000007
:1007B0009DF80730002B53D10D20FFF740FF2F4B42
:1007C00001221A704CE09DF80730012B06D10D2054
:1007D000FFF749FF294B00221A7043E09DF80730CC
:1007E000002B3FD10E20FFF72AFF244B02221A7064
:1007F00038E09DF80730012B06D10E20FFF733FFBC
:100800001E4B01221A702FE09DF80730002B2BD1D0
:100810000F20FFF714FF194B03221A7024E09DF8F4
:100820000730012B06D10F20FFF71DFF134B0222CB
:100830001A701BE09DF80730002B17D11020FFF72E
:10084000FEFE0E4B04221A7010E09DF80730012BBB
:100850000ED11020FFF707FF084B03221A7007E0A4
:1008600000BF06E000BF04E000BF02E000BF00E000
:1008700000BF00BF03B05DF804FB00BF28000020EC
:1008800000B583B00D20FFF7B4FE0E20FFF7B1FED8
:100890000F20FFF7AEFE1020FFF7ABFE03210B2069
:1008A000FFF7B8FE03210C20FFF7B4FEFFF720FF8F
:1008B00003468DF807309DF807301846FFF762FFB2
:1008C0006420FFF72DFEF1E7BFF34F8F00BF074B0A
:1008D000DB6803F4E0620549054B1343CB60BFF3CB
:1008E0004F8F00BF00BF00BFFCE700BF00ED00E07E
:1008F0000400FA05024B034A1A6000BF704700BFAC
:10090000040000200090D00308B500F027F903464A
:10091000002B0ED04FF080430022C3F80C214FF083
:1009200080430022C3F810214FF080430022C3F817
:10093000382500F037F90346002B76D04FF080536E
:100940007D4AD3F80434C2F820354FF080537A4AF8
:10095000D3F80834C2F824354FF08053764AD3F8E0
:100960000C34C2F828354FF08053734AD3F8103452
:10097000C2F82C354FF080536F4AD3F81434C2F8C4
:1009800030354FF080536C4AD3F81834C2F8343500
:100990004FF08053684AD3F81C34C2F840354FF00A
:1009A0008053654AD3F82034C2F844354FF0805361
:1009B000614AD3F82434C2F848354FF080535E4A78
:1009C000D3F82834C2F84C354FF080535A4AD3F844
:1009D0002C34C2F850354FF08053574AD3F8303496
:1009E000C2F854354FF08053534AD3F83434C2F828
:1009F00060354FF08053504AD3F83834C2F864352C
:100A00004FF080534C4AD3F83C34C2F868354FF06D
:100A10008053494AD3F84034C2F86C354FF08053C4
:100A2000454AD3F84434C2F8703500F0DFF8034685
:100A3000002B02D0414B424A1A6000F0E9F803460D
:100A4000002B03D03F4BFB22C3F8182500F0F2F82F
:100A50000346002B0AD03C4B1B6823F00F023B4B94
:100A60001B6803F00F03384913430B6000F0F4F8E0
:100A70000346002B03D0364B4FF400721A6000F08F
:100A8000FDF80346002B0DD04FF08043D3F800341F
:100A900003F00103002B05D04FF080436FF00102FB
:100AA000C3F800242B4BD3F888302A4A43F4700350
:100AB000C2F88830BFF34F8F00BFBFF36F8F00BF06
:100AC0004FF01023D3F80032002B05DB4FF010233A
:100AD000D3F80432002B2BDA1F4B0122C3F8042574
:100AE00000BF1D4BD3F80034002BFAD04FF0102379
:100AF0001222C3F8002200BF174BD3F80034002B9A
:100B0000FAD04FF010231222C3F8042200BF124B78
:100B1000D3F80034002BFAD00F4B0022C3F8042581
:100B200000BF0D4BD3F80034002BFAD0FFF7CCFEFA
:100B3000FFF7E0FE00BF08BD00C000408C5600403B
:100B40004881030000F00040E40E0040580200100D
:100B50004096024000ED00E000E001400F4B1B68B2
:100B6000082B17D10E4B1B68002B01D1012312E07B
:100B70000B4B1B68012B01D101230CE0084B1B68B8
:100B8000022B01D1012306E0054B1B68032B01D189
:100B9000012300E001231846704700BF3001001018
:100BA000340100100F4B1B68082B17D10E4B1B682C
:100BB000002B01D1012312E00B4B1B68012B01D14B
:100BC00001230CE0084B1B68022B01D1012306E036
:100BD000054B1B68032B01D1012300E001231846BC
:100BE000704700BF3001001034010010064B1B6835
:100BF000082B05D1054B1B68002B01D1012300E018
:100C000000231846704700BF300100103401001067
:100C1000064B1B68082B05D1054B1B68002B01D127
:100C2000012300E000231846704700BF3001001088
:100C300034010010064B1B68082B05D1054B1B68BF
:100C4000002B01D1012300E000231846704700BFAC
:100C50003001001034010010064B1B68082B05D131
:100C6000054B1B68002B01D1012300E0002318462F
:100C7000704700BF30010010340100100F4B1B689B
:100C8000082B17D10E4B1B68002B01D1012312E05A
:100C90000B4B1B68012B01D101230CE0084B1B6897
:100CA000022B01D1012306E0054B1B68032B01D168
:100CB000012300E001231846704700BF30010010F7
:040CC00034010010EB
:100CC4002E2E2F2E2E2F2E2E2F2E2E2F2E2E2F2E3B
:100CD4002E2F6D6F64756C65732F6E7266782F6836
:100CE400616C2F6E72665F6770696F2E680000001A
:100CF4000000000000000000000000000338FDD8E0
:020D0400704736
:080D0800010100000090D0037E
:040000030000037581
:00000001FF
