:1000000000000420750300005D0300005F03000092
:1000100061030000630300006503000000000000AE
:100020000000000000000000000000006703000066
:1000300069030000000000006B0300006D03000076
:100040006F0300006F0300006F0300006F030000E8
:100050006F0300006F030000B10E00006F0300008B
:100060006F0300006F0300006F0300006F030000C8
:100070006F0300006F0300006F0300006F030000B8
:100080006F0300006F0300006F0300006F030000A8
:100090006F0300006F0300006F0300006F03000098
:1000A0006F0300006F0300006F0300006F03000088
:1000B0006F0300006F03000000000000000000005C
:1000C0006F0300006F0300006F0300006F03000068
:1000D0006F0300006F0300006F0300006F03000058
:1000E0006F0300006F0300006F03000000000000BA
:1000F000000000006F030000000000006F0300001C
:1001000000000000000000000000000000000000EF
:1001100000000000000000000000000000000000DF
:1001200000000000000000000000000000000000CF
:1001300000000000000000000000000000000000BF
:1001400000000000000000000000000000000000AF
:10015000000000000000000000000000000000009F
:10016000000000000000000000000000000000008F
:10017000000000000000000000000000000000007F
:10018000000000000000000000000000000000006F
:10019000000000000000000000000000000000005F
:1001A000000000000000000000000000000000004F
:1001B000000000000000000000000000000000003F
:1001C000000000000000000000000000000000002F
:1001D000000000000000000000000000000000001F
:1001E000000000000000000000000000000000000F
:1001F00000000000000000000000000000000000FF
:10020000354936480A1A02D0072291438D463449AF
:1002100034480A1A06D00722914381F30988022242
:1002200082F3148830483149314A00F044F83148AB
:100230003149324A00F03FF831483249324A00F041
:100240003AF832483249334A00F035F832483349F7
:10025000334A00F030F833483349344A00F02BF881
:1002600033483449344A00F026F8344834490022EF
:1002700000F02CF833483449002200F027F83348C6
:100280003349091A082902DB002202604160314A21
:1002900090471F481F49884205D00268043003B4C4
:1002A000904703BCF7E700208646EC46002000217B
:1002B000294A9047FEE7884207D0521A05D00378B2
:1002C00001300B700131013AF9D17047884202D0F8
:1002D00002700130FAE770470000042000E00320BC
:1002E0000000042000000420381900000000002055
:1002F00004000020D0030000D0030000E617000037
:10030000381900000000002000000020E81700005D
:10031000E8170000E8170000E8170000E8170000E1
:10032000E8170000E8170000E81700003719000080
:100330003C190000040000200400002004000020FC
:10034000800000208000002080000020800000202D
:10035000802000209D0300007D130000FEE7FEE7E3
:10036000FEE7FEE7FEE7FEE7FEE7FEE7FEE7FEE765
:1003700000F002B8FFF7FCBF0F484FF007018843B9
:1003800085460E4880470E48016841F470010160BF
:10039000BFF34F8FBFF36F8FFFF732BF09480A4992
:1003A0000A4A884207D0521A05D0037801300B70F0
:1003B0000131013AF9D1704700000420C513000053
:1003C00088ED00E0E8170000000000200000002099
:1003D00086B003900291019201238DF817309DF8A9
:1003E0001730214A039B13601F4A029B53601E4A29
:1003F000019B9360039B44F20102934213D0039B41
:1004000044F20202934221D1019B174AD360164B5A
:10041000DB681B881A46144B9A61134BDB685B68D8
:10042000114AD36112E0019B0F4A13610E4B1B6905
:100430009B680D4A53610C4B1B691B680A4A936108
:10044000094B1B695B68084AD36100BF72B600BFE5
:1004500000BF9DF81730DBB2002BFAD162B600BFA7
:1004600000BF06B0704700BF0400002000B583B095
:1004700002900091019244F2010071466A4600F038
:1004800003F803B000BD00BF00B587B00390029130
:10049000019272B600BF039B44F20102934207D05F
:1004A000039B44F20202934205D1019B059303E0B2
:1004B000019B049300E000BF074B1B6803F001039E
:1004C000002B00D000BE019A02990398FFF780FF2D
:1004D00000BF07B05DF804FBF0ED00E000B585B0AB
:1004E00003460091ADF80630BDF80630ADF808308F
:1004F000009B039302AB1A46002144F20200FFF76F
:10050000C3FF00BF05B05DF804FB000082B00346E6
:100510008DF807309DF8073003F01F0205499DF95B
:1005200007305B09012000FA02F241F8232000BFE6
:1005300002B0704700E100E082B0034600918DF800
:1005400007309DF90730002B0CDA009BDAB20C491A
:100550009DF8073003F00F03043B5201D2B20B4465
:100560001A7609E0009BDAB206499DF9073052017C
:10057000D2B20B4483F8002300BF02B0704700BF23
:1005800000ED00E000E100E000B583B003460A465C
:100590008DF8073013468DF806309DF80630072B8E
:1005A00003D908496B20FFF799FF9DF806209DF9B4
:1005B000073011461846FFF7BFFF00BF03B05DF8D4
:1005C00004FB00BFE817000000B583B003468DF8B8
:1005D00007309DF907301846FFF798FF00BF03B0BA
:1005E0005DF804FB00B583B00346ADF80630BDF8F6
:1005F0000630184600F026F803461B68012B0CBF96
:1006000001230023DBB2184603B05DF804FB00B5FC
:1006100085B00346ADF80630BDF80630184600F048
:1006200011F803461A4600231360BDF80630184639
:1006300000F008F803461B680393039B00BF05B056
:100640005DF804FB82B00346ADF80630BDF8063015
:1006500003F1804303F5C043184602B07047000021
:1006600082B00190034A019BC2F8043300BF02B07C
:10067000704700BF0060004082B00190034BD3F888
:100680000423019B1340184602B0704700600040ED
:1006900082B00190084A019B03F5A27352F82330FF
:1006A000054943F00102019B03F5A27341F82320A1
:1006B00000BF02B0704700BF0060004084B00390EC
:1006C000029113468DF80730144A039B03F5A27379
:1006D00052F82330114923F44F3323F44073039A23
:1006E00002F5A27241F822300C4A039B03F5A27373
:1006F00052F82320029B1B0203F47C519DF8073023
:100700001B0403F440330B4304491A43039B03F5D2
:10071000A27341F8232000BF04B07047006000407E
:1007200082B00190054A019B03F5A27352F8233071
:100730001B0A03F03F03184602B0704700600040F8
:1007400082B00190064A019B03F5A27352F8233050
:100750001B0C03F00303DBB2184602B0704700BF66
:100760000060004000B583B00190019B1B682F2BF7
:1007700004D90B4940F2CD10FFF7B0FE019B1B6876
:100780001F2B02D84FF0A04306E0019B1B6803F02B
:100790001F02019B1A60034B184603B05DF804FB6F
:1007A000181800000003005000B585B001900846FD
:1007B00011461A4603468DF803300B468DF8023079
:1007C00013468DF8013001AB1846FFF7CBFF0390BD
:1007D0009DF803209DF802305B001A439DF801301C
:1007E0009B001A439DF818301B0242EA03019DF852
:1007F0001C301B04019A1943039B02F5E07243F875
:10080000221000BF05B05DF804FB00B585B0039071
:100810000B468DF80B309DF80B3000220192002220
:100820000092002200210398FFF7BEFF00BF05B031
:100830005DF804FB00B585B0019001AB1846FFF7E9
:1008400091FF0390019A039B02F5E07253F8223066
:1008500023F002030293019A039B02F5E0720299CE
:1008600043F8221000BF05B05DF804FB00B585B069
:1008700001900B468DF8033001AB1846FFF772FF6D
:100880000390019A039B02F5E07253F82230019A1B
:1008900023F44031039B02F5E07243F82210019AE1
:1008A000039B02F5E07253F822309DF803201204F6
:1008B0001146019A1943039B02F5E07243F8221096
:1008C00000BF05B05DF804FB00B585B0019001AB39
:1008D0001846FFF747FF0390039800F020F8024600
:1008E000019B22FA03F303F00103184605B05DF8FB
:1008F00004FB00B585B0019001AB1846FFF732FF4D
:100900000390019A039B02F5E07253F822301B0C0E
:1009100003F00303DBB2184605B05DF804FB82B0B8
:100920000190019BD3F81035184602B070470000C3
:1009300000B589B0039002910192184A05AB92E884
:10094000030083E80300039A029B1344022B04D99B
:10095000134940F2FD20FFF7C1FD039B079311E00F
:10096000079B9B0008AA134453F80C3C1846FFF75A
:10097000D6FF0246019B1A60019B04330193079B3B
:1009800001330793039A029B1344079A9A42E7D3D1
:1009900000BF00BF09B05DF804FB00BF48180000AD
:1009A0001818000084B001900091009B0393019BF4
:1009B000DB080293019B03F0070301930122019BD3
:1009C00002FA03F30399029A0A4412781340184674
:1009D00004B0704784B001900091009B0393019B89
:1009E000DB080293019B03F007030193039A029B28
:1009F00013441B785AB20121019B01FA03F35BB245
:100A0000134359B2039A029B1344CAB21A7000BF2F
:100A100004B0704782B001900C4A019B1344243308
:100A200093F90030002B09DB084A019B134424335F
:100A300093F90030072B01DC012300E0002303F0D1
:100A40000103DBB2184602B0704700BF240000204B
:100A500082B00190064A019B1344243393F900307D
:100A6000072BCCBF01230023DBB2184602B070472E
:100A70002400002082B00190064A019B13442433D5
:100A800093F90030DB43DBB2DB09DBB2184602B07E
:100A9000704700BF2400002084B0039002910192AF
:100AA0008DF80330029B59B20E4A039B1344243342
:100AB0000A461A700B49029B019A41F823209DF8BF
:100AC000033083F00103DBB2002B08D0029B083B0C
:100AD000039A51B2034A13440A4683F8542000BFD4
:100AE00004B070472400002082B00190044A019BAA
:100AF00013442433FF221A7000BF02B0704700BFB6
:100B00002400002000B583B0019004490198FFF74C
:100B100061FF00BF03B05DF804FB00BF7900002057
:100B200082B00190044A019B1344243393F90030AE
:100B3000184602B0704700BF2400002082B0019028
:100B4000034A019B52F82330184602B0704700BF99
:100B50002400002000B589B00390029113468DF85F
:100B60000730FF238DF81F309DF80730002B01D090
:100B7000002300E0082305939DF80730002B01D0E7
:100B8000082300E009230493059B069314E00F4A11
:100B9000069B52F82330B3F1FF3F0AD19DF807308E
:100BA000029A06990398FFF777FF069B8DF81F308E
:100BB00006E0069B01330693069A049B9A42E6D30D
:100BC0009DF91F30184609B05DF804FB2400002091
:100BD00082B003468DF807309DF80730094A4FF080
:100BE000FF3142F823109DF80730072B07D99DF8F5
:100BF0000730083B034A1344FF2283F8542000BF08
:100C000002B070472400002000B583B0254B93F854
:100C10005B30002B03D008230093009B3EE00023B1
:100C20008DF8073009E09DF807301846FFF75CFFA4
:100C30009DF8073001338DF807309DF807302F2BD2
:100C4000F1D900238DF8073009E09DF807301846E8
:100C5000FFF7BEFF9DF8073001338DF807309DF890
:100C60000730082BF1D9062200210F4800F088FD3B
:100C700006210620FFF788FC0620FFF7A5FC4FF4AD
:100C8000BE70FFF7C4FC4FF00040FFF7E9FC054BD6
:100C9000012283F85B2000230093009B184603B0D9
:100CA0005DF804FB240000207900002000B587B027
:100CB000039002910192039B2F2B04D9364940F2F5
:100CC0000720FFF70BFC002305930398FFF7D2FEE4
:100CD0000346002B02D00823059357E0029B9B7824
:100CE000C3F34003DBB21A4601990398FFF732FFC2
:100CF00003468DF813309DF91330B3F1FF3F43D015
:100D0000029B9B78C3F38003DBB283F00103DBB269
:100D1000002B13D0029B9B7803F00103DBB2002B66
:100D200003D00398FFF786FD05E0029B5B78194628
:100D30000398FFF76AFD0398FFF7E4FE029B9B7898
:100D400003F00203DBB2002B08D09DF91300029BD5
:100D50001B781A460399FFF7B1FC17E09DF9133091
:100D6000083B0E4A134493F95410029B1B789B01D5
:100D70005AB29DF91330083B0A4351B2074A134453
:100D80000A4683F8542001E004230593059B184686
:100D900007B05DF804FB00BF5018000024000020DD
:100DA00000B589B001900B468DF80330019B2F2BC5
:100DB00004D93D4940F23720FFF790FB0198FFF737
:100DC00059FE0346002B04D137494FF40E70FFF74C
:100DD00085FB0198FFF73CFE0346002B2FD00198BE
:100DE000FFF79EFE0346083B304A134493F9543004
:100DF0008DF80F309DF80F309B098DF80E309DF85F
:100E00000E30032B0BD10198FFF75EFD0346002B3C
:100E100001D0032300E002238DF81F3008E09DF885
:100E20000E30012B01D1022300E003238DF81F3087
:100E30009DF81F3019460198FFF718FD30E0019822
:100E4000FFF7E8FD0346002B2AD00198FFF768FE64
:100E500003460693069B9BB240339BB29B00ADF8C2
:100E60001630069B1846FFF713FCBDF816301846DF
:100E7000FFF7CDFB9DF80330002B11D00198FFF751
:100E80004FFE03461846FFF759FE0490049B002BC3
:100E900006D00122069B02FA03F31846FFF7E0FB97
:100EA00000BF09B05DF804FB5018000024000020CA
:100EB00000B599B00023179306AB00221A605A6060
:100EC0004FF48073ADF8563001231493002316932A
:100ED00021E0BDF856301846FFF784FB0346002B8F
:100EE0000ED01498FFF7C8FB0346002B08D0BDF8BE
:100EF00056301846FFF78BFB179A149B1343179332
:100F0000149B5B001493BDF856300433ADF8563093
:100F1000169B01331693169B072BDAD94FF4BE703C
:100F2000FFF760FB0346002B0DD04FF4BE70FFF7B8
:100F30006EFB179B43F00043179306AB1A46022142
:100F40000020FFF7F5FC179BDBB2002B29D0012313
:100F500014930023169321E0149A179B1340002B3F
:100F600016D01698FFF7DCFB11901698FFF7E8FBF8
:100F700003468DF843301698FFF7E0FD0F900F9B66
:100F8000002B05D09DF843200F9B114611989847E0
:100F9000149B5B001493169B01331693169B072B2F
:100FA000DAD9179B002B80F2F08000238DF84B30AC
:100FB00004AB00221A605A60002313930AE0139BCB
:100FC0009B0018AA13444FF0FF3243F8582C139B90
:100FD00001331393139B012BF1D900238DF84B3070
:100FE0000023169378E06B4A169B1344543393F90D
:100FF00000308DF83B309DF83B3023F0C0030D935B
:10100000644A169B1344543393F90030B3F1FF3F05
:101010005FD002AB19460D98FFF7C4FC0346002BC6
:1010200057D09DF83B309B098DF833300D98FFF772
:1010300077FD03461846FFF781FD0B900B9B002BB5
:1010400003D19DF83330032B43D19DF83330032B6C
:1010500004D104AB19460D98FFF7BCFC0D98FFF7BF
:1010600048FC03468DF82B3006AB19460D98FFF768
:1010700099FC0990099B002B03D09DF82B30022B83
:1010800006D0099B002B24D19DF82B30032B20D1B7
:101090009DF83330032B13D19DF82B30022B01D157
:1010A000032300E002238DF823309DF823301946F6
:1010B0000D98FFF7DBFB9DF84B3001338DF84B307B
:1010C0000B9B002B05D09DF833200B9B11460D98F0
:1010D0009847169B01331693169B002B83D09DF8DF
:1010E0004B30002B4CD001238DF84A306B461A460A
:1010F00002210020FFF71CFC0023139314E0139B34
:101100009B0018AA134453F8602C139B9B0018A94A
:101110000B4453F8483C9A4203D000238DF84A30E0
:1011200005E0139B01331393139B012BE7D99DF823
:101130004A30002B03D000238DF84B3020E00023F1
:1011400013931AE0139B9B0018AA134453F8602CC6
:10115000139B9B0018A90B4443F8482C139B9B003E
:1011600018AA134453F8502C139B9B0018A90B4446
:1011700043F8582C139B01331393139B012BE1D994
:101180009DF84B30002B7FF428AF00BF19B05DF8FD
:1011900004FB00BF2400002000B583B00190019B38
:1011A0001B682F2B04D90B4940F2CD10FFF796F99D
:1011B000019B1B681F2B02D84FF0A04306E0019B48
:1011C0001B6803F01F02019B1A60034B184603B013
:1011D0005DF804FBA01800000003005000B585B0C6
:1011E0000190084611461A4603468DF803300B4617
:1011F0008DF8023013468DF8013001AB1846FFF729
:10120000CBFF03909DF803209DF802305B001A434A
:101210009DF801309B001A439DF818301B0242EAEA
:1012200003019DF81C301B04019A1943039B02F52E
:10123000E07243F8221000BF05B05DF804FB00B572
:1012400085B0039000230193002300930023012223
:1012500001210398FFF7C2FF00BF05B05DF804FB52
:1012600000B585B0019001AB1846FFF795FF0390DC
:10127000019B012202FA03F31946039800F026F8B5
:1012800000BF05B05DF804FB00B585B0019001AB6F
:101290001846FFF781FF0390039BD3F804350293B0
:1012A000029BDA43019B012101FA03F31A40039BDD
:1012B000C3F80825019B01229A40029B1A40039B18
:1012C000C3F80C2500BF05B05DF804FB82B00190A7
:1012D0000091019B009AC3F8082500BF02B0704737
:1012E00000B583B001900B468DF803300D20FFF759
:1012F000CBFF00BF03B05DF804FB000000B585B074
:10130000FFF782FC0390039B0293029B002B04D007
:10131000174A1B210298FFF7A9F80D20FFF78FFF4E
:101320000D20FFF79DFF134A6B4612681146198086
:101330000233120C1A7003238DF801306B460E4AEB
:1013400019460B20FFF7B2FC0390039B0193019B0E
:10135000002B04D0064A24210198FFF787F80121C9
:101360000B20FFF71DFD00BF05B05DF804FB00BFBB
:10137000D018000034190000E112000008B5FFF792
:10138000BDFFFEE7BFF34F8F00BF074BDB6803F4E1
:10139000E0620549054B1343CB60BFF34F8F00BF9D
:1013A00000BF00BFFCE700BF00ED00E00400FA054D
:1013B000024B034A1A6000BF704700BF00000020C4
:1013C0000090D00308B500F027F90346002B0ED09B
:1013D0004FF080430022C3F80C214FF080430022DD
:1013E000C3F810214FF080430022C3F8382500F0E5
:1013F00037F90346002B76D04FF080537D4AD3F85F
:101400000434C2F820354FF080537A4AD3F80834B8
:10141000C2F824354FF08053764AD3F80C34C2F822
:1014200028354FF08053734AD3F81034C2F82C3566
:101430004FF080536F4AD3F81434C2F830354FF070
:1014400080536C4AD3F81834C2F834354FF08053C7
:10145000684AD3F81C34C2F840354FF08053654ACF
:10146000D3F82034C2F844354FF08053614AD3F8A2
:101470002434C2F848354FF080535E4AD3F82834FC
:10148000C2F84C354FF080535A4AD3F82C34C2F886
:1014900050354FF08053574AD3F83034C2F85435A2
:1014A0004FF08053534AD3F83434C2F860354FF0CC
:1014B0008053504AD3F83834C2F864354FF0805323
:1014C0004C4AD3F83C34C2F868354FF08053494A4F
:1014D000D3F84034C2F86C354FF08053454AD3F806
:1014E0004434C2F8703500F0DFF80346002B02D018
:1014F000414B424A1A6000F0E9F80346002B03D042
:101500003F4BFB22C3F8182500F0F2F80346002BEE
:101510000AD03C4B1B6823F00F023B4B1B6803F0C7
:101520000F03384913430B6000F0F4F80346002B17
:1015300003D0364B4FF400721A6000F0FDF80346FA
:10154000002B0DD04FF08043D3F8003403F001039B
:10155000002B05D04FF080436FF00102C3F8002448
:101560002B4BD3F888302A4A43F47003C2F88830F2
:10157000BFF34F8F00BFBFF36F8F00BF4FF010233B
:10158000D3F80032002B05DB4FF01023D3F80432E0
:10159000002B2BDA1F4B0122C3F8042500BF1D4B83
:1015A000D3F80034002BFAD04FF010231222C3F8E6
:1015B000002200BF174BD3F80034002BFAD04FF0B5
:1015C00010231222C3F8042200BF124BD3F80034B8
:1015D000002BFAD00F4B0022C3F8042500BF0D4B9F
:1015E000D3F80034002BFAD0FFF7CCFEFFF7E0FE73
:1015F00000BF08BD00C000408C5600404881030079
:1016000000F00040E40E00405802001040960240F6
:1016100000ED00E000E001400F4B1B68082B17D1E4
:101620000E4B1B68002B01D1012312E00B4B1B68F2
:10163000012B01D101230CE0084B1B68022B01D1C7
:10164000012306E0054B1B68032B01D1012300E0B9
:1016500001231846704700BF30010010340100100C
:101660000F4B1B68082B17D10E4B1B68002B01D1A9
:10167000012312E00B4B1B68012B01D101230CE06D
:10168000084B1B68022B01D1012306E0054B1B68A8
:10169000032B01D1012300E001231846704700BF4E
:1016A0003001001034010010064B1B68082B05D1D7
:1016B000054B1B68002B01D1012300E000231846D5
:1016C000704700BF3001001034010010064B1B684A
:1016D000082B05D1054B1B68002B01D1012300E02D
:1016E00000231846704700BF30010010340100107D
:1016F000064B1B68082B05D1054B1B68002B01D13D
:10170000012300E000231846704700BF300100109D
:1017100034010010064B1B68082B05D1054B1B68D4
:10172000002B01D1012300E000231846704700BFC1
:1017300030010010340100100F4B1B68082B17D12B
:101740000E4B1B68002B01D1012312E00B4B1B68D1
:10175000012B01D101230CE0084B1B68022B01D1A6
:10176000012306E0054B1B68032B01D1012300E098
:1017700001231846704700BF3001001034010010EB
:101780008446002A2DD010F0030F04D000F8011B6E
:10179000013A26D0F7E7C9B241EA012141EA014105
:1017A000202A12D3A2F120022DE9F0030B460C46A9
:1017B0000D460E460F4688468946A0E8FA03203AB1
:1017C000FBD2BDE8F00320320BD0042A05D340F849
:1017D000041B043A05D0042AF9D200F8011B013A8F
:0617E000FBD160467047DA
:1017E8002E2E2F2E2E2F2E2E2F2E2E2F2E2E2F2E0C
:1017F8002E2F696E746567726174696F6E2F6E72D1
:1018080066782F6E7266785F676C75652E68000063
:101818002E2E2F2E2E2F2E2E2F2E2E2F2E2E2F2EDB
:101828002E2F6D6F64756C65732F6E7266782F68D6
:10183800616C2F6E72665F6770696F2E68000000BA
:1018480000000050000300502F686F6D652F646E14
:101858006B3132342F4465736B746F702F5072691B
:10186800796573682F6E5246355F53444B2F6D6F01
:1018780064756C65732F6E7266782F64726976650D
:1018880072732F7372632F6E7266785F6770696FF9
:1018980074652E63000000002E2E2F2E2E2F2E2E64
:1018A8002F2E2E2F2E2E2F2E2E2F6D6F64756C65DA
:1018B800732F6E7266782F68616C2F6E72665F6721
:1018C80070696F2E680000002F686F6D652F646E59
:1018D8006B3132342F4465736B746F702F5072699B
:1018E800796573682F6E5246355F53444B2F657880
:1018F800616D706C65732F4E6F726469635F5072AF
:101908006F6A6374732F4E6F726469635F50726F8E
:101918006A656374735F30355F496E74657272759A
:0F19280070742F6D61696E2E6300000002000263
:041938000090D00348
:040000030000037581
:00000001FF
