:1000000000000420750300005D0300005F03000092
:1000100061030000630300006503000000000000AE
:100020000000000000000000000000006703000066
:1000300069030000000000006B0300006D03000076
:10004000592500006F0300006F0300006F030000DC
:100050006F0300006F030000F91D00006F03000034
:100060006F0300006F0300006F0300006F030000C8
:100070006F0300006F0300006F0300006F030000B8
:100080006F030000911200006F0300006F03000077
:10009000D11200006F0300006F0300006F03000027
:1000A0006F0300006F0300006F0300006F03000088
:1000B0006F0300006F03000000000000000000005C
:1000C0006F0300006F0300006F0300006F03000068
:1000D0006F0300006F0300006F0300006F03000058
:1000E0006F0300006F0300006F03000000000000BA
:1000F000000000006F030000000000006F0300001C
:1001000000000000000000000000000000000000EF
:1001100000000000000000000000000000000000DF
:1001200000000000000000000000000000000000CF
:1001300000000000000000000000000000000000BF
:1001400000000000000000000000000000000000AF
:10015000000000000000000000000000000000009F
:10016000000000000000000000000000000000008F
:10017000000000000000000000000000000000007F
:10018000000000000000000000000000000000006F
:10019000000000000000000000000000000000005F
:1001A000000000000000000000000000000000004F
:1001B000000000000000000000000000000000003F
:1001C000000000000000000000000000000000002F
:1001D000000000000000000000000000000000001F
:1001E000000000000000000000000000000000000F
:1001F00000000000000000000000000000000000FF
:10020000354936480A1A02D0072291438D463449AF
:1002100034480A1A06D00722914381F30988022242
:1002200082F3148830483149314A00F044F83148AB
:100230003149324A00F03FF831483249324A00F041
:100240003AF832483249334A00F035F832483349F7
:10025000334A00F030F833483349344A00F02BF881
:1002600033483449344A00F026F8344834490022EF
:1002700000F02CF833483449002200F027F83348C6
:100280003349091A082902DB002202604160314A21
:1002900090471F481F49884205D00268043003B4C4
:1002A000904703BCF7E700208646EC46002000217B
:1002B000294A9047FEE7884207D0521A05D00378B2
:1002C00001300B700131013AF9D17047884202D0F8
:1002D00002700130FAE770470000042000E00320BC
:1002E0000000042000000420F04300000000002073
:1002F0006C000020D0030000D0030000583D000037
:10030000F04300000000002000000020583D0000E5
:10031000583D0000583D0000583D0000583D000089
:10032000583D0000583D0000583D0000EF430000DC
:100330005C4400006C0000206C0000206C00002079
:100340005C0200205C0200205C0200205C020020B5
:100350005C2200209D030000B5280000FEE7FEE7B8
:10036000FEE7FEE7FEE7FEE7FEE7FEE7FEE7FEE765
:1003700000F002B8FFF7FCBF0F484FF007018843B9
:1003800085460E4880470E48016841F470010160BF
:10039000BFF34F8FBFF36F8FFFF732BF09480A4992
:1003A0000A4A884207D0521A05D0037801300B70F0
:1003B0000131013AF9D170470000042049310000B1
:1003C00088ED00E0583D0000000000200000002003
:1003D00003F09CBC00B583B00190019B1B682F2BE0
:1003E00004D90B4940F2CD1000F049FA019B1B687B
:1003F0001F2B02D84FF0A04306E0019B1B6803F0BF
:100400001F02019B1A60034B184603B05DF804FB02
:10041000583D00000003005000B585B0019008462B
:1004200011461A4603468DF803300B468DF802300C
:1004300013468DF8013001AB1846FFF7CBFF039050
:100440009DF803209DF802305B001A439DF80130AF
:100450009B001A439DF818301B0242EA03019DF8E5
:100460001C301B04019A1943039B02F5E07243F808
:10047000221000BF05B05DF804FB00B585B0039005
:1004800000230193002300930023012201210398FC
:10049000FFF7C2FF00BF05B05DF804FB00B585B0F3
:1004A00003900B468DF80B309DF80B300022019223
:1004B00000220092002200210398FFF7ADFF00BF49
:1004C00005B05DF804FB00B585B0019001AB18469E
:1004D000FFF780FF0390019B012202FA03F3194604
:1004E000039800F02AF800BF05B05DF804FB00B5E2
:1004F00085B0019001AB1846FFF76CFF0390019B9C
:10050000012202FA03F31946039800F020F800BF15
:1005100005B05DF804FB00B583B001900091009B2D
:10052000002B03D10198FFF7E2FF02E00198FFF7EB
:10053000CAFF00BF03B05DF804FB82B001900091D8
:10054000019B009AC3F8082500BF02B0704782B033
:1005500001900091019B009AC3F80C2500BF02B0E6
:100560007047000000B583B00190019B032B03D9B5
:100570000749412000F083F9064A019B13441B7888
:1005800000211846FFF7C7FF00BF03B05DF804FB6A
:10059000883D0000CC3D000000B583B00190019B78
:1005A000032B03D90749472000F069F9064A019B4C
:1005B00013441B7801211846FFF7ADFF00BF03B0BD
:1005C0005DF804FB883D0000CC3D000000B583B021
:1005D0000023019305E00198FFF7DEFF019B013343
:1005E0000193019B032BF6D900BF00BF03B05DF858
:1005F00004FB00B583B00023019305E00198FFF7E9
:10060000B1FF019B01330193019B032BF6D900BF7E
:1006100000BF03B05DF804FB00B583B00023019375
:1006200009E0094A019B13441B781846FFF725FF90
:10063000019B01330193019B032BF2D9FFF7C6FF06
:1006400000BF03B05DF804FBCC3D000000B583B0F3
:10065000002301930AE0094A019B13441B780321FC
:100660001846FFF71BFF019B01330193019B032BEE
:10067000F1D900BF00BF03B05DF804FBD03D00001E
:1006800000B583B00190019B03F00103002B01D062
:10069000FFF7C2FF019B03F00203002B01D0FFF71D
:1006A000D5FF00BF03B05DF804FB000086B00390E7
:1006B0000291019201238DF817309DF81730214ADD
:1006C000039B13601F4A029B53601E4A019B936069
:1006D000039B44F20102934213D0039B44F20202B3
:1006E000934221D1019B174AD360164BDB681B88CC
:1006F0001A46144B9A61134BDB685B68114AD3614D
:1007000012E0019B0F4A13610E4B1B699B680D4A57
:1007100053610C4B1B691B680A4A9361094B1B69A7
:100720005B68084AD36100BF72B600BF00BF9DF886
:100730001730DBB2002BFAD162B600BF00BF06B0A3
:10074000704700BF6C00002000B583B0029000919C
:10075000019244F2010071466A4600F003F803B0CA
:1007600000BD00BF00B587B003900291019272B640
:1007700000BF039B44F20102934207D0039B44F263
:100780000202934205D1019B059303E0019B049370
:1007900000E000BF074B1B6803F00103002B00D0F3
:1007A00000BE019A02990398FFF780FF00BF07B0CF
:1007B0005DF804FBF0ED00E072B600BF034B1B6870
:1007C0000133024A136000BF704700BF8C00002055
:1007D000064B1B68013B054A1360044B1B68002B4A
:1007E00001D162B600BF00BF704700BF8C0000207F
:1007F00000B583B0019000F025F80346012B03D02B
:100800000449432000F03BF8FFF7D6FF00BF03B0D8
:100810005DF804FBD43D000000B583B003468DF8BD
:10082000073000F00FF80346012B03D00449512094
:1008300000F025F8FFF7CCFF00BF03B05DF804FB24
:10084000D43D000084B0EFF305830193019BC3F313
:1008500008030393039B002B0DD1EFF31483009344
:10086000009B0293029B03F00103002B0CBF0123AA
:100870000023DBB200E00123184604B0704700B546
:1008800085B003460091ADF80630BDF80630ADF8EE
:100890000830009B039302AB1A46002144F2020089
:1008A000FFF760FF00BF05B05DF804FB82B00346B0
:1008B0008DF807309DF8073003F01F0205499DF9B8
:1008C00007305B09012000FA02F241F8232000BF43
:1008D00002B0704700E100E082B003468DF80730B7
:1008E0009DF8073003F01F0206499DF907305B09A8
:1008F000012000FA02F2203341F8232000BF02B0A9
:10090000704700BF00E100E082B003468DF8073079
:100910009DF8073003F01F0206499DF907305B0977
:10092000012000FA02F2403341F8232000BF02B058
:10093000704700BF00E100E082B003468DF8073049
:100940009DF8073003F01F0206499DF907305B0947
:10095000012000FA02F2603341F8232000BF02B008
:10096000704700BF00E100E082B0034600918DF8BF
:1009700007309DF90730002B0CDA009BDAB20C49E6
:100980009DF8073003F00F03043B5201D2B20B4431
:100990001A7609E0009BDAB206499DF90730520148
:1009A000D2B20B4483F8002300BF02B0704700BFEF
:1009B00000ED00E000E100E000B585B00190019B92
:1009C000002B0AD0074B43F001030393019B9B01CB
:1009D0000293039B0298984700E000BF05B05DF8C2
:1009E00004FB00BF303E000000B583B00190064A12
:1009F000019BC2F8083506211120FFF7B5FF00BFA3
:100A000003B05DF804FB00BF0010014008B50D4BBA
:100A10004FF48032C3F844230A4B4FF48032C3F8BA
:100A200004231120FFF788FF1120FFF73FFF054B3C
:100A300001221A602F20FFF7BFFF034B01221A701B
:100A400000BF08BD00100140AE01002008B5112014
:100A5000FFF742FF0E4B4FF48032C3F848230C4B94
:100A60004FF48032C3F80823094B01225A602F202B
:100A7000FFF7A2FF064B01229A60064B00221A6084
:100A80002F20FFF799FF044B00221A7000BF08BD0A
:100A900000100140A0010020AE010020024BD3F85D
:100AA00004351846704700BF0010014082B0019025
:100AB0000091019A009BD31A23F07F43184602B09D
:100AC0007047000082B00190034A019BC2F8403594
:100AD00000BF02B0704700BF0010014086B0019017
:100AE000284B1B68002B03D1264A019B136045E06D
:100AF000019B1A68234B1B681B689A4210D8214B34
:100B00001B681968019B1A681E4B1B688A1A1A60B9
:100B10001C4B1A68019BDA611A4A019B13602DE095
:100B2000019B1B680393174B1B680593154B1B68B0
:100B3000049309E0049B1B68039AD31A0393049B54
:100B40000593049BDB690493049B002B04D0049B56
:100B50001B68039A9A42EDD8049B002B05D0049B96
:100B60001A68039BD21A049B1A60019B039A1A60AD
:100B7000019B049ADA61059B019ADA6100BF06B015
:100B8000704700BF9C01002000B587B001902A4B40
:100B90001B680393284B1B680593059B049308E08F
:100BA000049A019B9A4208D0049B0593049BDB693D
:100BB0000493049B002BF3D100E000BF049B002BA7
:100BC00001D1002333E0059A049B9A4214D11A4BB9
:100BD0001B68DB69184A1360174B1B68002B0BD18D
:100BE000164B01229A60164B00221A60154B012207
:100BF0001A702F20FFF7E0FE049B1B680293049BF2
:100C0000DA69059BDA61059BDB690493049B002B81
:100C100005D0049B1A68029B1A44049B1A60064B79
:100C20001B68039A9A4214BF01230023DBB21846C3
:100C300007B05DF804FB00BF9C01002000100140DC
:100C4000A0010020AF01002008B51120FFF75CFED5
:100C500000BF08BD08B51420FFF756FE00BF08BD51
:100C600000B583B00190019B5B69019A92691046BF
:100C7000984700BF03B05DF804FB000000B585B0E5
:100C80002B4B1B68002B4ED000230193FFF706FF70
:100C90000246284B1B6819461046FFF707FF0290D3
:100CA000234B1B6803931DE0039B1B68029A9A4227
:100CB0001CD3039B1B68029AD31A0293039B1B68E5
:100CC000019A13440193039B0093039BDB690393F5
:100CD000009B1B7C002B05D0009B00221A740098FF
:100CE000FFF7BEFF039B002BDED100E000BF124BDD
:100CF0001A78124B1B789A420CD1104B1B78013397
:100D0000DAB20E4B1A700D4B1B78022B02D10B4B33
:100D100000221A70094B1B781946094A019B42F8B8
:100D20002130FFF797FF00BF05B05DF804FB00BF5F
:100D30009C010020A0010020AC010020AD0100209A
:100D4000A401002082B00190184B1A78184B1B7830
:100D50009A4223D0154B1B780133DAB2134B1A7029
:100D6000124B1B78022B02D1104B00221A700F4B32
:100D70001B781A460F4B53F82220019B1A60019BE7
:100D80001A680D4B1B6813440B4A13600A4B1B680F
:100D900023F07F43084A1360012303E0019B0022F4
:100DA0001A600023184602B0704700BFAC01002053
:100DB000AD010020A4010020A001002088B0039014
:100DC000029101920023079338E0204B1B680693A1
:100DD000069B1B68039A9A4206D2069B1A68039BDD
:100DE000D21A069B1A602EE0069B1B68039AD31A40
:100DF0000393069B1B68079A13440793069B0022E4
:100E00001A60124B1B680593069BDB690F4A13603F
:100E1000069BDB68002B11D0029A079B134423F03A
:100E20007F42069B5A60069BDA68069B9A60019B8C
:100E30001A68069BDA61019B059A1A60034B1B68CE
:100E4000002BC2D100BF00BF08B070479C0100203A
:100E500000B589B0019000238DF81F30664B1B68E8
:100E60000593AAE0019B002B05D0019B0693069BEE
:100E7000DB69019361E0614B1B781A4613465B0006
:100E80001344DB005D4A1344043304935B4B1B782B
:100E90000133DAB2594B1A70584B1A78574B9B787A
:100EA0009A4202D1554B00221A70049B5B6806934C
:100EB000049B1B78032B1ED0032B7EDC012B1FD041
:100EC000022B7AD1049B5B681846FFF75DFE034650
:100ED000002B02D001238DF81F30069B00221A74CC
:100EE0006BE0454B1B680393039B00221A74039B22
:100EF000DB69414A1360404B1B68002BF1D15CE079
:100F000000BF069B1B7C002B00D056E0049B9A6818
:100F1000069B5A60049BDA68069B9A60049B1A69D8
:100F2000069BDA60049B5A69069B9A61344B1B78D6
:100F3000002B02D0069B00225A60069B5A68314B58
:100F40001B68D31A23F07F432F4A93420ED8069B87
:100F50005B682C4A126811461846FFF7A7FD024647
:100F6000069B9B681A44069B1A6017E0254B1A687B
:100F7000069B5B6819461046FFF798FD0290069B9A
:100F80009B68029A9A4206D2069B9A68029BD21AE2
:100F9000069B1A6002E0069B00221A60069B002254
:100FA0005A60069B00229A60069B01221A74069BD7
:100FB0000022DA610698FFF791FD019B002B7FF478
:100FC00051AF0E4B1A780D4B5B789A427FF44AAFC3
:100FD0009DF81F30002B04D1074B1B68059A9A42DD
:100FE00001D0012300E0002303F00103DBB2184627
:100FF00009B05DF804FB00BF9C01002090000020B8
:10100000AF010020A0010020FEFF7F0010B588B0D6
:101010000190274B1B68002B44D0254B1B681B6895
:101020000793FFF73BFD0690224B1B68059305993C
:101030000698FFF73BFD0346033304931E4B1B78D2
:1010400083F00103DBB2002B01D0FFF7DFFC049A31
:10105000079B934238BF1346059A13440593059B9B
:1010600023F07F4305930598FFF72CFDFFF716FD4E
:10107000039006990398FFF719FD0346DC1C0699B7
:101080000598FFF713FD03469C420DD9FFF706FDB7
:1010900003461846FFF716FD2F20FFF78DFCFFF7DC
:1010A000D3FD01E0FFF7D2FC00BF08B010BD00BFC8
:1010B0009C010020A0010020AE01002000B587B0F7
:1010C0000023019300238DF81730194B1B680493FC
:1010D000184B1B6803936B461846FFF733FE034615
:1010E0008DF80B309DF80B30002B08D0009B01AA27
:1010F00004991846FFF762FE01238DF81730019B13
:101100001846FFF7A5FE0346002B02D001238DF8F9
:1011100017309DF81730002B02D00398FFF776FFA9
:10112000054B00221A7000BF07B05DF804FB00BF3A
:10113000A00100209C010020AF01002082B00346E6
:101140008DF80730034A9DF80730537000BF02B096
:10115000704700BF9000002084B00190144B5B7872
:1011600001338DF80F30124B9B789DF80F209A4277
:1011700002D100238DF80F300D4B1B789DF80F2006
:101180009A4201D100230FE0019B9DF80F201A70B5
:10119000074B5B781A4613465B001344DB00044A96
:1011A000134404330293029B184604B0704700BFF7
:1011B0009000002000B589B0039002910192009345
:1011C000002307930020FFF713FB0DF117031846C8
:1011D000FFF7C2FF0690069B002B02D10423079362
:1011E00018E0069B01221A70069B039A5A60FFF7CB
:1011F00055FC0246069B9A60069B029ADA60069BA3
:10120000019A1A61069B009A5A619DF81730184698
:10121000FFF794FF0020FFF7FFFA079B002B01D197
:10122000FFF718FD079B184609B05DF804FB00B5F1
:1012300087B001900B468DF8033000230593002002
:10124000FFF7D6FA0DF10F031846FFF785FF04905C
:10125000049B002B02D1042305930BE0049B9DF813
:1012600003201A70049B019A5A609DF80F301846AB
:10127000FFF764FF0020FFF7CFFA059B002B01D199
:10128000FFF7E8FC059B184607B05DF804FB00007B
:1012900008B50E4B0022C3F840210C4B0022C3F8C6
:1012A00044210A4B0022C3F84821084B0022C3F80E
:1012B0004C21064B0022C3F80021044B0022C3F846
:1012C0000421FFF7DBFC00BF08BD00BF0010014098
:1012D00008B5FFF7F3FE00BF08BD000008B5FFF733
:1012E000B5FB134B00221A70114B00225A70104BA1
:1012F0000B229A700F4B00221A600F4B00221A70BB
:101300000E4B00221A701420FFF716FB0621142042
:10131000FFF72AFB1420FFF7C9FA0020FFF764FB50
:10132000FFF7BCFB0346064A13600023184608BDBE
:10133000900000209C010020AC010020AD010020A5
:10134000A001002086B003900B4601928DF80B306F
:10135000134B9B78002B01D108231EE0019B002B2F
:1013600001D1072319E0039B002B01D1072314E0CF
:10137000039B1B681B7C002B01D008230DE0039B03
:101380001B680593059B00221A74059B9DF80B2092
:101390005A74059B019A5A610023184606B070479B
:1013A0009000002000B587B0039002910192039B4A
:1013B0000593164B9B78002B01D1082322E0039B59
:1013C000002B01D108231DE0029B042B03D9029BB3
:1013D000B3F1807F01D3072314E0059B5B69002BE9
:1013E00001D108230EE0059B5B7C012B01D1029B00
:1013F00000E000230493019B049A02990598FFF7EB
:10140000D9FE0346184607B05DF804FB90000020A3
:1014100000B585B00190019B03930D4B9B78002B89
:1014200001D1082310E0019B002B03D0039B5B69D3
:10143000002B01D1082307E0039B00221A7402212C
:101440000398FFF7F4FE0346184605B05DF804FB69
:101450009000002082B003468DF807309DF80730D9
:1014600003F01F0205499DF907305B09012000FACE
:1014700002F241F8232000BF02B0704700E100E013
:1014800082B0034600918DF807309DF90730002B9C
:101490000CDA009BDAB20C499DF8073003F00F0319
:1014A000043B5201D2B20B441A7609E0009BDAB237
:1014B00006499DF907305201D2B20B4483F800234C
:1014C00000BF02B0704700BF00ED00E000E100E0A7
:1014D00000B583B003460A468DF8073013468DF8F1
:1014E00006309DF80630072B03D908496B20FFF71B
:1014F000C6F99DF806209DF9073011461846FFF7FA
:10150000BFFF00BF03B05DF804FB00BF383E000022
:1015100000B583B003468DF807309DF907301846B3
:10152000FFF798FF00BF03B05DF804FB00B583B080
:101530000346ADF80630BDF80630184600F026F830
:1015400003461B68012B0CBF01230023DBB21846A6
:1015500003B05DF804FB00B585B00346ADF8063076
:10156000BDF80630184600F011F803461A4600236D
:101570001360BDF80630184600F008F803461B68F3
:101580000393039B00BF05B05DF804FB82B00346E4
:10159000ADF80630BDF8063003F1804303F5C043D3
:1015A000184602B07047000082B00190034A019BC8
:1015B000C2F8043300BF02B0704700BF00600040B3
:1015C00082B00190034BD3F80423019B13401846CB
:1015D00002B070470060004082B00190084A019B51
:1015E00003F5A27352F82330054943F00102019B31
:1015F00003F5A27341F8232000BF02B0704700BF7B
:101600000060004084B00390029113468DF80730CB
:10161000144A039B03F5A27352F82330114923F4B3
:101620004F3323F44073039A02F5A27241F822303B
:101630000C4A039B03F5A27352F82320029B1B0262
:1016400003F47C519DF807301B0403F440330B4333
:1016500004491A43039B03F5A27341F8232000BFFA
:1016600004B070470060004082B00190054A019BC1
:1016700003F5A27352F823301B0A03F03F03184608
:1016800002B070470060004082B00190064A019BA2
:1016900003F5A27352F823301B0C03F00303DBB2F3
:1016A000184602B0704700BF0060004000B583B02C
:1016B0000190019B1B682F2B04D90B4940F2CD10E0
:1016C000FFF7DDF8019B1B681F2B02D84FF0A043EA
:1016D00006E0019B1B6803F01F02019B1A60034B8D
:1016E000184603B05DF804FB683E0000000300509C
:1016F00000B585B00190084611461A4603468DF89C
:1017000003300B468DF8023013468DF8013001ABE3
:101710001846FFF7CBFF03909DF803209DF8023099
:101720005B001A439DF801309B001A439DF8183066
:101730001B0242EA03019DF81C301B04019A194365
:10174000039B02F5E07243F8221000BF05B05DF87C
:1017500004FB00B585B003900B468DF80B309DF867
:101760000B300022019200220092002200210398F7
:10177000FFF7BEFF00BF05B05DF804FB00B585B004
:10178000019001AB1846FFF791FF0390019A039B6C
:1017900002F5E07253F8223023F002030293019A1B
:1017A000039B02F5E072029943F8221000BF05B0D6
:1017B0005DF804FB00B585B001900B468DF8033051
:1017C00001AB1846FFF772FF0390019A039B02F5E5
:1017D000E07253F82230019A23F44031039B02F562
:1017E000E07243F82210019A039B02F5E07253F86D
:1017F00022309DF8032012041146019A1943039BDD
:1018000002F5E07243F8221000BF05B05DF804FB5A
:1018100000B585B0019001AB1846FFF747FF039074
:10182000039800F020F80246019B22FA03F303F02C
:101830000103184605B05DF804FB00B585B00190C2
:1018400001AB1846FFF732FF0390019A039B02F5A4
:10185000E07253F822301B0C03F00303DBB218468E
:1018600005B05DF804FB82B00190019BD3F8103500
:10187000184602B07047000000B589B0039002918D
:101880000192184A05AB92E8030083E80300039A2B
:10189000029B1344022B04D9134940F2FD20FEF7AA
:1018A000EEFF039B079311E0079B9B0008AA1344DC
:1018B00053F80C3C1846FFF7D6FF0246019B1A600E
:1018C000019B04330193079B01330793039A029B07
:1018D0001344079A9A42E7D300BF00BF09B05DF8EE
:1018E00004FB00BF983E0000683E000084B00190F9
:1018F0000091009B0393019BDB080293019B03F083
:10190000070301930122019B02FA03F30399029A50
:101910000A4412781340184604B0704784B001900E
:101920000091009B0393019BDB080293019B03F052
:1019300007030193039A029B13441B785AB20121B7
:10194000019B01FA03F35BB2134359B2039A029B62
:101950001344CAB21A7000BF04B0704782B001903D
:101960000C4A019B1344243393F90030002B09DB0C
:10197000084A019B1344243393F90030072B01DC00
:10198000012300E0002303F00103DBB2184602B09C
:10199000704700BFB001002082B00190064A019B51
:1019A0001344243393F90030072BCCBF01230023C9
:1019B000DBB2184602B07047B001002082B001903F
:1019C000064A019B1344243393F90030DB43DBB216
:1019D000DB09DBB2184602B0704700BFB00100203F
:1019E00084B00390029101928DF80330029B59B2AA
:1019F0000E4A039B134424330A461A700B49029B78
:101A0000019A41F823209DF8033083F00103DBB2F3
:101A1000002B08D0029B083B039A51B2034A13449F
:101A20000A4683F8542000BF04B07047B00100207C
:101A300082B00190044A019B13442433FF221A70A0
:101A400000BF02B0704700BFB001002000B583B0F6
:101A5000019004490198FFF761FF00BF03B05DF8F2
:101A600004FB00BF0502002082B00190044A019BE4
:101A70001344243393F90030184602B0704700BF76
:101A8000B001002082B00190034A019B52F823303C
:101A9000184602B0704700BFB001002000B589B001
:101AA0000390029113468DF80730FF238DF81F3005
:101AB0009DF80730002B01D0002300E00823059398
:101AC0009DF80730002B01D0082300E00923049380
:101AD000059B069314E00F4A069B52F82330B3F19E
:101AE000FF3F0AD19DF80730029A06990398FFF745
:101AF00077FF069B8DF81F3006E0069B01330693A7
:101B0000069A049B9A42E6D39DF91F30184609B005
:101B10005DF804FBB001002082B003468DF8073069
:101B20009DF80730094A4FF0FF3142F823109DF825
:101B30000730072B07D99DF80730083B034A1344A9
:101B4000FF2283F8542000BF02B07047B00100208C
:101B500000B583B0254B93F85B30002B03D00823EE
:101B60000093009B3EE000238DF8073009E09DF8CC
:101B700007301846FFF75CFF9DF8073001338DF8FA
:101B800007309DF807302F2BF1D900238DF807304F
:101B900009E09DF807301846FFF7BEFF9DF80730B3
:101BA00001338DF807309DF80730082BF1D9062254
:101BB00000210F4801F029FD06210620FFF788FCCF
:101BC0000620FFF7A5FC4FF4BE70FFF7C4FC4FF0F2
:101BD0000040FFF7E9FC054B012283F85B2000235E
:101BE0000093009B184603B05DF804FBB001002091
:101BF0000502002000B587B0039002910192039B7B
:101C00002F2B04D9364940F20720FEF738FE002377
:101C100005930398FFF7D2FE0346002B02D008235A
:101C2000059357E0029B9B78C3F34003DBB21A464F
:101C300001990398FFF732FF03468DF813309DF9A1
:101C40001330B3F1FF3F43D0029B9B78C3F3800373
:101C5000DBB283F00103DBB2002B13D0029B9B7835
:101C600003F00103DBB2002B03D00398FFF786FDDE
:101C700005E0029B5B7819460398FFF76AFD03981D
:101C8000FFF7E4FE029B9B7803F00203DBB2002B1C
:101C900008D09DF91300029B1B781A460399FFF7A1
:101CA000B1FC17E09DF91330083B0E4A134493F939
:101CB0005410029B1B789B015AB29DF91330083BCC
:101CC0000A4351B2074A13440A4683F8542001E0FC
:101CD00004230593059B184607B05DF804FB00BF7D
:101CE000A03E0000B001002000B589B001900B4675
:101CF0008DF80330019B2F2B04D93D4940F237204A
:101D0000FEF7BDFD0198FFF759FE0346002B04D1F5
:101D100037494FF40E70FEF7B2FD0198FFF73CFE15
:101D20000346002B2FD00198FFF79EFE0346083B89
:101D3000304A134493F954308DF80F309DF80F302A
:101D40009B098DF80E309DF80E30032B0BD10198B6
:101D5000FFF75EFD0346002B01D0032300E00223C2
:101D60008DF81F3008E09DF80E30012B01D10223C1
:101D700000E003238DF81F309DF81F3019460198AD
:101D8000FFF718FD30E00198FFF7E8FD0346002B50
:101D90002AD00198FFF768FE03460693069B9BB284
:101DA00040339BB29B00ADF81630069B1846FFF7F8
:101DB00013FCBDF816301846FFF7CDFB9DF8033035
:101DC000002B11D00198FFF74FFE03461846FFF78E
:101DD00059FE0490049B002B06D00122069B02FAB8
:101DE00003F31846FFF7E0FB00BF09B05DF804FB02
:101DF000A03E0000B001002000B599B00023179369
:101E000006AB00221A605A604FF48073ADF856306A
:101E1000012314930023169321E0BDF85630184691
:101E2000FFF784FB0346002B0ED01498FFF7C8FB86
:101E30000346002B08D0BDF856301846FFF78BFB41
:101E4000179A149B13431793149B5B001493BDF8CC
:101E500056300433ADF85630169B01331693169B5B
:101E6000072BDAD94FF4BE70FFF760FB0346002B57
:101E70000DD04FF4BE70FFF76EFB179B43F000438D
:101E8000179306AB1A4602210020FFF7F5FC179BBB
:101E9000DBB2002B29D0012314930023169321E0F9
:101EA000149A179B1340002B16D01698FFF7DCFBF3
:101EB00011901698FFF7E8FB03468DF8433016980B
:101EC000FFF7E0FD0F900F9B002B05D09DF84320FE
:101ED0000F9B114611989847149B5B001493169B17
:101EE00001331693169B072BDAD9179B002B80F230
:101EF000F08000238DF84B3004AB00221A605A604A
:101F0000002313930AE0139B9B0018AA13444FF07D
:101F1000FF3243F8582C139B01331393139B012B6F
:101F2000F1D900238DF84B300023169378E06B4AEB
:101F3000169B1344543393F900308DF83B309DF8D1
:101F40003B3023F0C0030D93644A169B1344543373
:101F500093F90030B3F1FF3F5FD002AB19460D9803
:101F6000FFF7C4FC0346002B57D09DF83B309B097C
:101F70008DF833300D98FFF777FD03461846FFF7CD
:101F800081FD0B900B9B002B03D19DF83330032B6D
:101F900043D19DF83330032B04D104AB19460D987F
:101FA000FFF7BCFC0D98FFF748FC03468DF82B307B
:101FB00006AB19460D98FFF799FC0990099B002B79
:101FC00003D09DF82B30022B06D0099B002B24D187
:101FD0009DF82B30032B20D19DF83330032B13D1E8
:101FE0009DF82B30022B01D1032300E002238DF852
:101FF00023309DF8233019460D98FFF7DBFB9DF841
:102000004B3001338DF84B300B9B002B05D09DF8E6
:1020100033200B9B11460D989847169B013316935E
:10202000169B002B83D09DF84B30002B4CD0012306
:102030008DF84A306B461A4602210020FFF71CFC3F
:102040000023139314E0139B9B0018AA134453F826
:10205000602C139B9B0018A90B4453F8483C9A42F0
:1020600003D000238DF84A3005E0139B013313930E
:10207000139B012BE7D99DF84A30002B03D0002396
:102080008DF84B3020E0002313931AE0139B9B0044
:1020900018AA134453F8602C139B9B0018A90B44F7
:1020A00043F8482C139B9B0018AA134453F8502C58
:1020B000139B9B0018A90B4443F8582C139B013326
:1020C0001393139B012BE1D99DF84B30002B7FF428
:1020D00028AF00BF19B05DF804FB00BFB0010020BD
:1020E00000B583B000230193104B1B78002B02D066
:1020F0008523019314E00D4B00229A600B4B0022C4
:102100005A600A4B00221A61084B0022DA60084824
:1021100000F0CEF9019000F0F1F9044B01221A70A1
:10212000019B184603B05DF804FB00BF0C020020C1
:102130007522000084B001900091019B1B680393FD
:1021400006E0039A009B9A420DD0039B1B68039301
:10215000039B002BF5D1019B1A68009B1A60019B21
:10216000009A1A6000E000BF04B0704784B001908C
:10217000019B1B680393039B002B03D0039B1A68EE
:10218000019B1A60039B184604B0704700B583B0EA
:102190000190224B1B78002B03D12149E920FEF747
:1021A0006EFB1E4B9B78DBB2002B12D0019B002BE9
:1021B00003D0019B5B68012098470020FEF718FBC5
:1021C000164BDB680133154AD3600020FEF724FB71
:1021D00017E00020FEF70CFB019B002B03D00199B8
:1021E0001048FFF7A7FF0D4BDB68002B01D100F073
:1021F00099F90A4BDB680133084AD3600020FEF7E7
:102200000BFB064BDB68002B04D1054940F205109F
:10221000FEF735FB00BF03B05DF804FB0C020020A5
:10222000F03E00001C02002000B585B003468DF88A
:1022300007309DF80730002B02D10C4B039301E0CF
:102240000B4B03930398FFF791FF0290029B002B27
:1022500006D0029B5B689DF8072010469847F1E77F
:1022600000BF00BF05B05DF804FB00BF14020020F2
:102270001C02002000B583B003468DF807309DF89E
:102280000730002B05D10A4B01225A700020FFF7BE
:10229000CBFF9DF80730012B05D1054B01229A7029
:1022A0000120FFF7C1FF00BF03B05DF804FB00BFD2
:1022B0000C02002082B003468DF807309DF80730ED
:1022C00003F01F0205499DF907305B09012000FA60
:1022D00002F241F8232000BF02B0704700E100E0A5
:1022E00082B0034600918DF807309DF90730002B2E
:1022F0000CDA009BDAB20C499DF8073003F00F03AB
:10230000043B5201D2B20B441A7609E0009BDAB2C8
:1023100006499DF907305201D2B20B4483F80023DD
:1023200000BF02B0704700BF00ED00E000E100E038
:1023300000B583B003460A468DF8073013468DF882
:1023400006309DF80630072B03D908496B20FEF7AD
:1023500096FA9DF806209DF9073011461846FFF7BA
:10236000BFFF00BF03B05DF804FB00BF403F0000AB
:1023700000B583B003468DF807309DF90730184645
:10238000FFF798FF00BF03B05DF804FB82B003467F
:102390008DF807300F4A9DF90730002B00DA1F3304
:1023A0005B115BB252F823209DF90730594203F0CC
:1023B0001F0301F01F0158BF4B425BB222FA03F327
:1023C00003F00103002B14BF01230023DBB21846E6
:1023D00002B0704700E100E082B001904FF080420F
:1023E000019BC2F8043300BF02B0704782B0019075
:1023F0004FF08042019BC2F8083300BF02B0704723
:1024000082B003468DF807309DF8073003F1804312
:1024100001221A6000BF02B0704784B00346ADF8D5
:102420000630BDF8063003F1804300221A60BDF883
:10243000063003F180431B680393039B00BF04B085
:10244000704782B00346ADF80630BDF8063003F1A0
:1024500080431B68002B14BF01230023DBB2184606
:1024600002B0704782B001904FF08042019BC2F8E9
:10247000183500BF02B0704700B583B006238DF851
:1024800007300020FFF782FF034683F00103DBB231
:10249000002B08D09DF8073019460020FFF748FFB1
:1024A0000020FFF765FF00BF03B05DF804FB0000EC
:1024B00000B585B00190019B002B03D10D49A420EC
:1024C000FEF7DDF9002303930B4B1B79002B02D0A1
:1024D0008523039308E0084A019B1360064B012201
:1024E0001A71054B00225A71039B184605B05DF81E
:1024F00004FB00BF703F00002002002008B5074B1E
:102500001B79002B03D10649BD20FEF7B8F9FFF770
:10251000B3FF0120FFF7A6FF00BF08BD2002002087
:10252000703F000008B50A4B1B79002B03D1094905
:10253000EA20FEF7A4F94FF48270FFF76EFF022045
:10254000FFF74AFF0820FFF75BFF00BF08BD00BF91
:1025500020020020703F000008B54FF48070FFF7A4
:1025600070FF0346002B14D04FF48070FFF755FF27
:102570000120FFF73BFF114B5B7983F00103DBB2D6
:10258000002B06D00D4B01225A710C4B1B6800200A
:1025900098474FF48270FFF754FF0346002B0AD090
:1025A0004FF48270FFF739FF0220FFF71FFF034B44
:1025B0001B680120984700BF08BD00BF2002002013
:1025C00000B583B00190019B1B682F2B04D90B49E8
:1025D00040F2CD10FEF753F9019B1B681F2B02D868
:1025E0004FF0A04306E0019B1B6803F01F02019B14
:1025F0001A60034B184603B05DF804FBBC3F0000B3
:102600000003005000B585B00190084611461A46F7
:1026100003468DF803300B468DF8023013468DF8D3
:10262000013001AB1846FFF7CBFF03909DF8032064
:102630009DF802305B001A439DF801309B001A435D
:102640009DF818301B0242EA03019DF81C301B0460
:10265000019A1943039B02F5E07243F8221000BF70
:1026600005B05DF804FB00B585B00390002301932D
:10267000002300930023012201210398FFF7C2FFEA
:1026800000BF05B05DF804FB08B50D20FFF7EBFFB8
:102690000E20FFF7E8FF0F20FFF7E5FF1020FFF700
:1026A000E2FF00BF08BD00B587B001900091019B1B
:1026B0005B788DF81730019B5A68019B5B7819464F
:1026C0000B465B000B445B001946009B1B780B44D8
:1026D0009B0013441B680493049B0099019898473E
:1026E00003468DF80F309DF80F30022B2AD1019B45
:1026F0005B788DF80E3001238DF80C30019B596802
:102700009DF8172013465B001344DB0004330B4491
:102710001B68049303AA049B114601989847002361
:102720008DF80C30019B59689DF80E2013465B0014
:102730001344DB000B441B68049303AA049B11465B
:102740000198984700BF07B05DF804FB82B0019084
:10275000019B024A5A6000BF02B07047040000208B
:1027600000B585B001900B468DF803309DF803301D
:10277000002B2BD0019B0B2B06D102238DF80C30A4
:10278000144800F015FF1CE0019B0C2B06D103231D
:102790008DF80C30104800F00BFF12E0019B182B55
:1027A00006D104238DF80C300C4800F001FF08E03E
:1027B000019B192B05D105238DF80C30084800F03A
:1027C000F7FE03AB19460748FFF76DFF00BF05B0E2
:1027D0005DF804FBEC3F00000040000014400000E6
:1027E0002C4000002802002000B587B0FFF7B0F9A8
:1027F0000490049B0393039B002B04D01D4A6C217F
:102800000398FDF7A1FF1C4A01AB1268114619801D
:102810000233120C1A7003238DF805300023059340
:102820001FE0164A059B13441B78184601AB144A57
:102830001946FFF7DFF90490049B0293029B002BDB
:1028400004D00C4A73210298FDF77EFF0B4A059BCA
:1028500013441B7801211846FFF746FA059B013304
:102860000593059B032BDCDD00BF00BF07B05DF8BF
:1028700004FB00BF3C400000B0400000000000200E
:102880006127000000B583B0FFF72AFC0190019B8F
:102890000093009B002B04D0054A81210098FDF78E
:1028A00053FF0020FFF772FC00BF03B05DF804FB8C
:1028B0003C40000008B50120FDF7E2FEFFF7E4FE12
:1028C0000648FFF743FF054800F0E0FBFFF78CFFE9
:1028D000FFF7D8FFFEF702FDFEE700BF2802002049
:1028E00000B585B00190019B002B0AD0074B43F047
:1028F00001030393019B9B010293039B029898475A
:1029000000E000BF05B05DF804FB00BFC04300005D
:1029100000B583B00190019B1B682F2B04D90B4994
:1029200040F2CD10FDF7ABFF019B1B681F2B02D8B7
:102930004FF0A04306E0019B1B6803F01F02019BC0
:102940001A60034B184603B05DF804FBB840000062
:102950000003005000B585B0019001AB1846FFF7A9
:10296000D7FF0390019B012202FA03F31946039853
:1029700000F03AF800BF05B05DF804FB00B585B083
:10298000019001AB1846FFF7C3FF0390019B0122A2
:1029900002FA03F31946039800F030F800BF05B0BF
:1029A0005DF804FB00B585B0019001AB1846FFF758
:1029B000AFFF0390039BD3F804350293029BDA43E5
:1029C000019B012101FA03F31A40039BC3F8082578
:1029D000019B01229A40029B1A40039BC3F80C25DD
:1029E00000BF05B05DF804FB82B001900091019B2F
:1029F000009AC3F8082500BF02B0704782B001906A
:102A00000091019B009AC3F80C2500BF02B07047EB
:102A100000B583B00190019B002B0AD04FF47A706F
:102A2000FFF75EFF019B013B0193019B002BF5D15A
:102A300000E000BF03B05DF804FB00B585B0019075
:102A4000019B0393039800F0B1F800BF05B05DF857
:102A500004FB000000B587B00190134A0121134820
:102A6000FEF770FC0590059B0493049B002B04D09B
:102A70000F4A23210498FDF767FE0E4B019A41F699
:102A80009A111846FEF78EFC0590059B0393039B55
:102A9000002B04D0064A29210398FDF755FE00BFFC
:102AA00007B05DF804FB00BF3B2A0000B440000003
:102AB000E84000003002002000B583B0094B184602
:102AC000FEF7A6FC0190019B0093009B002B04D015
:102AD000054A34210098FDF737FE00BF03B05DF8CA
:102AE00004FB00BF30020020E840000000B585B0C4
:102AF0000190019B1B781946104800F039FD002316
:102B00008DF80F300EE09DF80F300D4AD35C18465B
:102B1000FFF734FF3220FFF77BFF9DF80F300133C2
:102B20008DF80F30019B1B789DF80F209A42EAD355
:102B300000BF00BF05B05DF804FB00BF68410000A6
:102B40006400002000B583B001900199034800F0B3
:102B50000FFD00BF03B05DF804FB00BF7C41000027
:102B600000B585B001900F4800F022FD00238DF8DC
:102B70000F300EE09DF80F300B4AD35C1846FFF77C
:102B8000E9FE3220FFF744FF9DF80F3001338DF846
:102B90000F309DF80F30032BECD900BF00BF05B0FC
:102BA0005DF804FB844100006400002000B585B09E
:102BB00001900023039309E00A4A039B13441B7806
:102BC0001846FFF7EFFE039B01330393019B1B782D
:102BD0001A46039B9342EFDB00BF00BF05B05DF8D0
:102BE00004FB00BF6400002000B583B00190009199
:102BF000084800F0DDFC0198FFF778FF0648FFF772
:102C0000A1FF019B00225A700023184603B05DF813
:102C100004FB00BF904100009C41000000B583B060
:102C200001900091064800F0C3FC0198FFF798FF5F
:102C30000448FFF787FF0023184603B05DF804FB44
:102C4000AC410000B841000000B583B00190009194
:102C5000054800F0ADFC019B01225A700223184682
:102C600003B05DF804FB00BFC841000000B583B0AD
:102C700001900091054800F09BFC019B01225A70D5
:102C80000223184603B05DF804FB00BFD8410000E2
:102C900000B583B001900091019B1B78002B07D0F9
:102CA000094800F085FC019B02225A70022306E0CD
:102CB000054800F07DFC0548FFF744FF0123184656
:102CC00003B05DF804FB00BFE8410000FC410000D8
:102CD00000B583B001900091054800F069FC0548FB
:102CE000FFF730FF0123184603B05DF804FB00BF77
:102CF0000C420000FC41000000B583B0019000913F
:102D0000064800F055FC0198FFF7F0FE0448FFF775
:102D100019FF0023184603B05DF804FB18420000B9
:102D20002842000000B583B001900091064800F0F1
:102D30003FFC0198FFF714FF0448FFF703FF00234F
:102D4000184603B05DF804FB344200004442000022
:102D500000B583B0019000910E4800F029FC019B62
:102D60001B78032B0DD8019B1B780133DAB2019B32
:102D70001A700198FFF7F4FE0198FFF7B7FE0023E1
:102D800003E00548FFF7DEFE0123184603B05DF8B7
:102D900004FB00BF58420000FC41000000B583B0B6
:102DA000019000910E4800F003FC019B1B78002B62
:102DB0000DD0019B1B78013BDAB2019B1A70019880
:102DC000FFF7CEFE0198FFF791FE002303E00548D0
:102DD000FFF7B8FE0123184603B05DF804FB00BFFF
:102DE0006C420000FC41000000B583B001900091EE
:102DF000054800F0DDFB019B02225A7002231846B1
:102E000003B05DF804FB00BF8042000000B583B052
:102E100001900091054800F0CBFB019B00225A7005
:102E20000223184603B05DF804FB00BF984200007F
:102E300000B583B0019000910C4800F0B9FB019BF4
:102E40001B78002B0AD00198FFF750FE0848FFF7C7
:102E500079FE0198FFF7FEFD022303E00548FFF726
:102E600071FE0123184603B05DF804FBA842000080
:102E7000B8420000FC41000000B583B00190009111
:102E8000084800F095FB0198FFF76AFE019B0322BA
:102E90005A700548FFF756FE0023184603B05DF848
:102EA00004FB00BFD8420000E442000000B583B03C
:102EB00001900091054800F07BFB0548FFF742FEBA
:102EC0000123184603B05DF804FB00BFF842000080
:102ED000FC41000000B583B001900091054800F06E
:102EE00067FB0548FFF72EFE0123184603B05DF887
:102EF00004FB00BF08430000FC41000000B583B0A4
:102F000001900091054800F053FB019B03225A7089
:102F10000223184603B05DF804FB00BF184300000D
:102F200000B583B001900091019B1B78002B09D064
:102F30000A4800F03DFBFFF7BFFD019B00225A70DD
:102F4000022306E0054800F033FB019B00225A7083
:102F50000223184603B05DF804FB00BF2C430000B9
:102F600000B583B001900091019B1B78002B0CD021
:102F70000B4800F01DFBFFF79FFD0198FFF7B6FD22
:102F80000848FFF7DFFD002306E0054800F010FBCE
:102F90000548FFF7D7FD0123184603B05DF804FB91
:102FA0003843000048430000FC41000000B583B0F6
:102FB00001900091064800F0FBFA0198FFF7D0FD60
:102FC0000448FFF7BFFD0023184603B05DF804FB7B
:102FD000544300006043000000B583B001900091AD
:102FE000054800F0E5FA0548FFF7ACFD0123184657
:102FF00003B05DF804FB00BF74430000FC41000017
:1030000000B583B001900091054800F0D1FA054861
:10301000FFF798FD0123184603B05DF804FB00BFDD
:1030200084430000FC41000000B583B00190009192
:10303000054800F0BDFA019B02225A70022318468F
:1030400003B05DF804FB00BF9443000000B583B0FB
:1030500001900091019B1B78002B09D00A4800F0D9
:10306000A7FAFFF729FD019B00225A70022306E010
:10307000054800F09DFA019B00225A700223184671
:1030800003B05DF804FB00BFA843000000B587B0A3
:10309000019000238DF80C30019B00225A70019B97
:1030A00000221A70019B5A68019B5B7819460B46F7
:1030B0005B000B445B0019469DF80C300B449B00F1
:1030C00013441B68049300238DF817300EE0FDF7BE
:1030D00090FA3220FFF79CFCFDF778FA3220FFF7D8
:1030E00097FC9DF8173001338DF817309DF8173095
:1030F000092BECD903AA049B11460198984700BFFD
:1031000007B05DF804FB0000BFF34F8F00BF074B13
:10311000DB6803F4E0620549054B1343CB60BFF362
:103120004F8F00BF00BF00BFFCE700BF00ED00E015
:103130000400FA05024B034A1A6000BF704700BF43
:10314000680000200090D00308B500F027F903467E
:10315000002B0ED04FF080430022C3F80C214FF01B
:1031600080430022C3F810214FF080430022C3F8AF
:10317000382500F037F90346002B76D04FF0805306
:103180007D4AD3F80434C2F820354FF080537A4A90
:10319000D3F80834C2F824354FF08053764AD3F878
:1031A0000C34C2F828354FF08053734AD3F81034EA
:1031B000C2F82C354FF080536F4AD3F81434C2F85C
:1031C00030354FF080536C4AD3F81834C2F8343598
:1031D0004FF08053684AD3F81C34C2F840354FF0A2
:1031E0008053654AD3F82034C2F844354FF08053F9
:1031F000614AD3F82434C2F848354FF080535E4A10
:10320000D3F82834C2F84C354FF080535A4AD3F8DB
:103210002C34C2F850354FF08053574AD3F830342D
:10322000C2F854354FF08053534AD3F83434C2F8BF
:1032300060354FF08053504AD3F83834C2F86435C3
:103240004FF080534C4AD3F83C34C2F868354FF005
:103250008053494AD3F84034C2F86C354FF080535C
:10326000454AD3F84434C2F8703500F0DFF803461D
:10327000002B02D0414B424A1A6000F0E9F80346A5
:10328000002B03D03F4BFB22C3F8182500F0F2F8C7
:103290000346002B0AD03C4B1B6823F00F023B4B2C
:1032A0001B6803F00F03384913430B6000F0F4F878
:1032B0000346002B03D0364B4FF400721A6000F027
:1032C000FDF80346002B0DD04FF08043D3F80034B7
:1032D00003F00103002B05D04FF080436FF0010293
:1032E000C3F800242B4BD3F888302A4A43F47003E8
:1032F000C2F88830BFF34F8F00BFBFF36F8F00BF9E
:103300004FF01023D3F80032002B05DB4FF01023D1
:10331000D3F80432002B2BDA1F4B0122C3F804250B
:1033200000BF1D4BD3F80034002BFAD04FF0102310
:103330001222C3F8002200BF174BD3F80034002B31
:10334000FAD04FF010231222C3F8042200BF124B10
:10335000D3F80034002BFAD00F4B0022C3F8042519
:1033600000BF0D4BD3F80034002BFAD0FFF7CCFE92
:10337000FFF7E0FE00BF08BD00C000408C560040D3
:103380004881030000F00040E40E004058020010A5
:103390004096024000ED00E000E001400F4B1B684A
:1033A000082B17D10E4B1B68002B01D1012312E013
:1033B0000B4B1B68012B01D101230CE0084B1B6850
:1033C000022B01D1012306E0054B1B68032B01D121
:1033D000012300E001231846704700BF30010010B0
:1033E000340100100F4B1B68082B17D10E4B1B68C4
:1033F000002B01D1012312E00B4B1B68012B01D1E3
:1034000001230CE0084B1B68022B01D1012306E0CD
:10341000054B1B68032B01D1012300E00123184653
:10342000704700BF3001001034010010064B1B68CC
:10343000082B05D1054B1B68002B01D1012300E0AF
:1034400000231846704700BF3001001034010010FF
:10345000064B1B68082B05D1054B1B68002B01D1BF
:10346000012300E000231846704700BF3001001020
:1034700034010010064B1B68082B05D1054B1B6857
:10348000002B01D1012300E000231846704700BF44
:103490003001001034010010064B1B68082B05D1C9
:1034A000054B1B68002B01D1012300E000231846C7
:1034B000704700BF30010010340100100F4B1B6833
:1034C000082B17D10E4B1B68002B01D1012312E0F2
:1034D0000B4B1B68012B01D101230CE0084B1B682F
:1034E000022B01D1012306E0054B1B68032B01D100
:1034F000012300E001231846704700BF300100108F
:103500003401001010B504460846A2684AB1236889
:10351000616803F1010C8C4508BF00208B4208D282
:10352000D054E3682BB121686268914201D22146F0
:10353000984723680133236010BD70B54C1E09D431
:103540001646C5B229463046FFF7DCFF013CB4F110
:10355000FF3FF7D170BD10F0100F08D108B510F47F
:10356000007F14BF30202020FFF7E7FF08BD704721
:103570000FB410B586B008AB53F8044B0593002385
:1035800003936FF000430293084B049300F0BCFBDD
:10359000059A214601A800F09BF8044600F0B5FB0F
:1035A000204606B0BDE8104004B07047D1030000CB
:1035B00070B5054600F0A8FB013D002615F8010F87
:1035C00048B13146FCF704FF0446B0F1FF3FF5D1A6
:1035D00000F09BFB06E000210A20FCF7F9FE044600
:1035E00000F093FB204670BD037853B159B10144FC
:1035F000034613F8012F12B18B42FAD10B46181A69
:1036000070470346FBE70346F9E78446002A2DD0BE
:1036100010F0030F04D000F8011B013A26D0F7E7A1
:10362000C9B241EA012141EA0141202A12D3A2F1A3
:1036300020022DE9F0030B460C460D460E460F46C0
:1036400088468946A0E8FA03203AFBD2BDE8F00399
:1036500020320BD0042A05D340F8041B043A05D0CD
:10366000042AF9D200F8011B013AFBD160467047E9
:1036700000F1010110F0030F11D010F8012B002A06
:1036800023D010F0030F0AD010F8012B002A1CD011
:1036900010F0030F03D010F8012B002A15D02DE9EC
:1036A00070004FF001324FF0803350F8044BA4EB20
:1036B000020525EA04051D4000D1F6E7A0F104004B
:1036C00070BC10F8012B002AFBD1A0EB0100704761
:1036D0002DE9F04F89B007460392002303600C46A2
:1036E00014F8011B002900F0FC82DFF818B5EBE2AA
:1036F000002507E05E2868D145F4805501E045F0DB
:1037000040051C46234613F8010B3028F2D81F2829
:1037100037D9A0F12002102A33D801A151F822F0A4
:10372000FF36000083370000833700006537000054
:103730008337000083370000833700006B370000B9
:1037400083370000833700008337000071370000A3
:10375000833700007737000083370000833700008D
:103760007D37000045F08005CBE745F40045C8E70C
:1037700045F02005C5E745F01005C2E745F40075A2
:10378000BFE72A2821D1039A111D0391D2F800A086
:10379000BAF1000FBCBFCAF1000A45F01005187855
:1037A000A31C2AEAEA7A2E2826D00021742847D0C2
:1037B0007A2845D06C2800F0A8804C2800F0AB8017
:1037C000682800F0B8801C463DE0A0F13002D2B27B
:1037D000092A88BF4FF0000AE3D84FF0000A0AEB2D
:1037E0008A0A303800EB4A0A13F8010BA0F13002C4
:1037F000D2B2092AF3D9D4E718782A280AD1039A31
:10380000111D03911168587802330029CEDB45F46D
:103810008075CBE70133A0F13002D2B2092A88BF0C
:103820000021F4D8002101EB8101303800EB410187
:1038300013F8010BA0F13002D2B2092AF3D9E4E760
:103840001C4614F8010B002800F05782A0F1250354
:10385000DBB2532B62D8A0F12503532B5ED8DFE8EF
:1038600013F076005D005D005D005D005D005D00B1
:103870005D005D005D005D005D005D005D005D0060
:103880005D005D005D005D005D005D005D005D0050
:103890005D005D005D005D005D005D005D005D0040
:1038A0005D005D005D005D005D005D005D005D0030
:1038B0005D005D005D005D005D005D005D005D0020
:1038C0005D005D005D005D00EC005D005D005D0081
:1038D0005D005D005D005D005D005D005D007B00E2
:1038E00021015D005D005D005D0021015D005D0066
:1038F0005D005D0095000F01D2005D005D00A60037
:103900005D001A015D005D00EE001C4614F8010B1D
:1039100045F0010597E745F001051C46B54B1E68CB
:10392000002E00F0CE8103AB0193009153462A464E
:103930003946B047C5E11878682803D05C1C45F0CB
:10394000040580E745F008059C1C58787BE7252195
:103950003846FFF7D7FDB4E1039B1A1D03921E788A
:103960000AF1FF3A3A4651462846FFF7F4FD314640
:103970003846FFF7C7FDA94619F0100F00F0A181E6
:103980003A4651462020FFF7D8FD9AE115F0080F7E
:1039900006D03A68039B191D03911B681A7090E1C9
:1039A000039B1A1D03921B683A681A6089E1039B06
:1039B0001A1D0392D3F800808F4BB8F1000F08BF97
:1039C0009846464625F4007915F4807F16D0404687
:1039D000FFF70AFE0546AAEB050A3A465146484655
:1039E000FFF7B9FD002DC7D016F8011B3846FFF7C9
:1039F00089FDA8EB0603EB42F6D1BDE74046FFF791
:103A000037FE0546E7E7039B1A1D03921B6815F076
:103A1000800F0CBF0026232645F4807508211A4626
:103A2000002B00F02A8105AB4FF0000805F4005C84
:103A3000A64660468C460146D2E045F4005515F096
:103A4000800F1BD043F2780643F25803782818BF42
:103A50001E4615F4807F01D025F4007515F4804FC3
:103A600032D0039B1A1D03921B6815F0040F1FD060
:103A70001BB2002B20DA5B422D262DE00026E8E762
:103A800015F0800F0CBF0026302615F4807FE5D09E
:103A900025F40075E2E715F4807F07D025F4007562
:103AA0000026DBE745F480450026D7E70026D5E76A
:103AB00015F0080FDDD0DBB215F0200F61D115F045
:103AC000400F18BF202607E0039B1A1D03921B68B6
:103AD00015F0040F50D09BB215F4807F14BF25F46D
:103AE000007501215838202800F2AF8001A252F859
:103AF00020F000BF1F3A00004B3C00004B3C000090
:103B00004B3C00004B3C00004B3C00004B3C000099
:103B10004B3C00004B3C00004B3C00004B3C000089
:103B20004B3C0000AF3B00004B3C00004B3C000016
:103B30004B3C00004B3C0000AF3B00004B3C000006
:103B40004B3C00004B3C00004B3C00004B3C000059
:103B5000873B00001F3A00004B3C00004B3C00003C
:103B60004B3C00004B3C0000AF3B00004B3C0000D6
:103B70004B3C00001F3A000015F0080FACD0DBB240
:103B8000AAE72B26A8E71A464FF00008002B5ED0C4
:103B900005A84FF0000803F00703303300F8013B9D
:103BA00008F10108D2081346002AF4D14FE0184664
:103BB0004FF00008002B4AD04FF0000805F4004EEB
:103BC0004FF02C0973468E4619462FE002F00F0085
:103BD0000A4C205C03F8010B08F10108120906D019
:103BE0000029F3D002F00F00054C205CF2E7744688
:103BF00061462CE050020020E8430000C84300006A
:103C0000D8430000CDCCCCCC08AB03EB080CABFB0D
:103C10000032D20802EB8203A0EB430330330CF8EE
:103C20000C3C08F1010809280DD910460029EBD0F9
:103C300008F00303032BE7D108AB434403F80C9CC3
:103C400008F10108E0E7714601E04FF00008A1EB40
:103C5000080121EAE179AAEB090AAAEB080AFF2E7A
:103C60000ED9AAF1020AC6F307213846FFF74AFC2B
:103C7000F1B23846FFF746FC04E04FF00008E6E7F3
:103C8000002E3DD13A4651462846FFF764FC3A469D
:103C900049463020FFF751FCB8F1000F0EDD0DF161
:103CA000140908F1FF38C84498F800104646384611
:103CB000FFF728FCC14508F1FF38F5D115F0100FCA
:103CC00009D114F8011B61B125293FF411AD384623
:103CD000FFF718FCF5E73A4651462020FFF72DFC88
:103CE000EFE7BB682BB13A6879688A423CBF002194
:103CF0009954386809B0BDE8F08F4FF0FF30F9E70C
:103D00000AF1FF3AB4E700BF7047704710B50446A8
:103D10000146172000F008F800280CBF20464FF09D
:103D2000FF3010BD7047704738B504460D46FFF7A9
:103D3000F9FF074B1D6044F08004064B1C601A46D7
:103D40001368002BFCD1FFF7EEFF014B186838BD5C
:083D500058020020540200207B
:103D58002E2E2F2E2E2F2E2E2F2E2E2F2E2E2F2E76
:103D68002E2F6D6F64756C65732F6E7266782F6871
:103D7800616C2F6E72665F6770696F2E6800000055
:103D88002F686F6D652F646E6B3132342F44657305
:103D98006B746F702F507269796573682F6E524615
:103DA800355F53444B2F636F6D706F6E656E747320
:103DB8002F626F617264732F626F617264732E6316
:103DC800000000000D0E0F100B0C18192F686F6DF6
:103DD800652F646E6B3132342F4465736B746F706A
:103DE8002F507269796573682F6E5246355F534458
:103DF8004B2F636F6D706F6E656E74732F6C696295
:103E08007261726965732F7574696C2F6170705F68
:103E18007574696C5F706C6174666F726D2E630087
:103E280000000000000000000338FDD870470000C3
:103E38002E2E2F2E2E2F2E2E2F2E2E2F2E2E2F2E95
:103E48002E2F696E746567726174696F6E2F6E725A
:103E580066782F6E7266785F676C75652E680000ED
:103E68002E2E2F2E2E2F2E2E2F2E2E2F2E2E2F2E65
:103E78002E2F6D6F64756C65732F6E7266782F6860
:103E8800616C2F6E72665F6770696F2E6800000044
:103E980000000050000300502F686F6D652F646E9E
:103EA8006B3132342F4465736B746F702F507269A5
:103EB800796573682F6E5246355F53444B2F6D6F8B
:103EC80064756C65732F6E7266782F647269766597
:103ED80072732F7372632F6E7266785F6770696F83
:103EE80074652E63000000002F686F6D652F646E87
:103EF8006B3132342F4465736B746F702F50726955
:103F0800796573682F6E5246355F53444B2F696E3F
:103F1800746567726174696F6E2F6E7266782F6C44
:103F280065676163792F6E72665F6472765F636C32
:103F38006F636B2E630000002E2E2F2E2E2F2E2E39
:103F48002F2E2E2F2E2E2F2E2E2F696E7465677210
:103F58006174696F6E2F6E7266782F6E7266785F05
:103F6800676C75652E6800002F686F6D652F646E2D
:103F78006B3132342F4465736B746F702F507269D4
:103F8800796573682F6E5246355F53444B2F6D6FBA
:103F980064756C65732F6E7266782F6472697665C6
:103FA80072732F7372632F6E7266785F636C6F63C0
:103FB8006B2E63002E2E2F2E2E2F2E2E2F2E2E2FD1
:103FC8002E2E2F2E2E2F6D6F64756C65732F6E72CB
:103FD80066782F68616C2F6E72665F6770696F2EE6
:103FE800680000005369676E616C3A20494E435F70
:103FF8004C45440D000000005369676E616C3A201F
:104008004445435F4C45440D000000005369676E0A
:10401800616C3A2053544152545F50415553450DF9
:10402800000000005369676E616C3A2041425254A7
:104038000D0000002F686F6D652F646E6B31323490
:104048002F4465736B746F702F507269796573684C
:104058002F6E5246355F53444B2F6578616D706CF7
:1040680065732F53746174655F4D616368696E652C
:104078005F576F726B6573706163652F53746174FA
:10408800655F4D616368696E655F30355F554D4C9E
:104098005F46534D5F53746174655F5461626C652C
:1040A8002F6D61696E2E630002000200300200204D
:1040B8002E2E2F2E2E2F2E2E2F2E2E2F2E2E2F2E13
:1040C8002E2F6D6F64756C65732F6E7266782F680E
:1040D800616C2F6E72665F6770696F2E68000000F2
:1040E8002F686F6D652F646E6B3132342F446573A2
:1040F8006B746F702F507269796573682F6E5246B2
:10410800355F53444B2F6578616D706C65732F5321
:10411800746174655F4D616368696E655F576F723E
:104128006B6573706163652F53746174655F4D616E
:104138006368696E655F30355F554D4C5F46534D1A
:104148005F53746174655F5461626C652F73746149
:1041580074655F6D616368696E652E6300000000B9
:1041680043757272656E74204C4544733A20256419
:104178000D0A000025730D0A00000000436C6561FC
:1041880072206C65640D000049444C455F454E54EF
:1041980052590D0049444C452053544154450D0A89
:1041A8000000000049444C455F455849540D000043
:1041B800457869742066726F6D3A2049444C450011
:1041C80049444C455F494E435F4C45440D0000004F
:1041D80049444C455F4445435F4C45440D0000004D
:1041E80049444C455F53544152545F5041555345DF
:1041F8000D0000004556454E545F49474E4F524505
:10420800440D0A0049444C455F414252540D000098
:104218004C45445F5345545F454E5452590D000078
:10422800536574204C656473000000004C45445F7E
:104238005345545F455849540D000000457869744A
:104248002066726F6D3A204C45445F534554000018
:104258004C45445F5345545F494E435F4C45440DBC
:10426800000000004C45445F5345545F4445435F9C
:104278004C45440D000000004C45445F5345545FD5
:1042880053544152545F50415553450D00000000AE
:104298004C45445F5345545F414252540D00000061
:1042A800424C494E4B5F454E5452590D0000000098
:1042B8004150504C49434154494F4E206973206244
:1042C8006C696E6B696E67204C4544730D0A00007B
:1042D800424C494E4B5F455849540D004578697426
:1042E8002066726F6D3A20424C494E4B0000000028
:1042F800424C494E4B5F494E435F4C45440D0000CC
:10430800424C494E4B5F4445435F4C45440D0000C9
:10431800424C494E4B5F53544152545F50415553A0
:10432800450D0000424C494E4B5F414252540D002E
:1043380050415553455F454E5452590D00000000F9
:104348005041555345204C65647300005041555306
:10435800455F455849540D00457869742066726F69
:104368006D3A2050415553450000000050415553C7
:10437800455F494E435F4C45440D0000504155533D
:10438800455F4445435F4C45440D0000504155533B
:10439800455F53544152545F50415553450D0000F9
:1043A80050415553455F414252540D0000000000F2
:1043B80000000000000000000338FDD8704700002E
:1043C8003031323334353637383961626364656683
:1043D8003031323334353637383941424344454633
:0743E800286E756C6C2900C2
:1043F0000B0C1819E92B00001D2C0000492C0000A3
:104400006D2C0000912C0000D12C0000F92C000034
:10441000252D0000512D00009D2D0000E92D0000EC
:104420000D2E0000312E0000792E0000AD2E000070
:10443000D52E0000FD2E0000212F0000612F00006E
:10444000AD2F0000D92F00000130000029300000FE
:0C4450004D3000000D0E0F100090D00346
:040000030000037581
:00000001FF
