:1000000000000420750300005D0300005F03000092
:1000100061030000630300006503000000000000AE
:100020000000000000000000000000006703000066
:1000300069030000000000006B0300006D03000076
:100040006F0300006F0300006F0300006F030000E8
:100050006F0300006F0300006F0300006F030000D8
:100060006F0300006F0300006F0300006F030000C8
:100070006F0300006F0300006F0300006F030000B8
:100080006F0300006F0300006F0300006F030000A8
:100090006F0300006F0300006F0300006F03000098
:1000A0006F0300006F0300006F0300006F03000088
:1000B0006F0300006F03000000000000000000005C
:1000C0006F0300006F0300006F0300006F03000068
:1000D0006F0300006F0300006F0300006F03000058
:1000E0006F0300006F0300006F03000000000000BA
:1000F000000000006F030000000000006F0300001C
:1001000000000000000000000000000000000000EF
:1001100000000000000000000000000000000000DF
:1001200000000000000000000000000000000000CF
:1001300000000000000000000000000000000000BF
:1001400000000000000000000000000000000000AF
:10015000000000000000000000000000000000009F
:10016000000000000000000000000000000000008F
:10017000000000000000000000000000000000007F
:10018000000000000000000000000000000000006F
:10019000000000000000000000000000000000005F
:1001A000000000000000000000000000000000004F
:1001B000000000000000000000000000000000003F
:1001C000000000000000000000000000000000002F
:1001D000000000000000000000000000000000001F
:1001E000000000000000000000000000000000000F
:1001F00000000000000000000000000000000000FF
:10020000354936480A1A02D0072291438D463449AF
:1002100034480A1A06D00722914381F30988022242
:1002200082F3148830483149314A00F044F83148AB
:100230003149324A00F03FF831483249324A00F041
:100240003AF832483249334A00F035F832483349F7
:10025000334A00F030F833483349344A00F02BF881
:1002600033483449344A00F026F8344834490022EF
:1002700000F02CF833483449002200F027F83348C6
:100280003349091A082902DB002202604160314A21
:1002900090471F481F49884205D00268043003B4C4
:1002A000904703BCF7E700208646EC46002000217B
:1002B000294A9047FEE7884207D0521A05D00378B2
:1002C00001300B700131013AF9D17047884202D0F8
:1002D00002700130FAE770470000042000E00320BC
:1002E0000000042000000420501E00000000002038
:1002F00008000020D0030000D0030000AC1C000068
:10030000501E00000000002000000020AC1C000077
:10031000AC1C0000AC1C0000AC1C0000AC1C0000BD
:10032000AC1C0000AC1C0000AC1C00004F1E000008
:10033000581E0000080000200800002008000020CF
:100340003C0000203C0000203C0000203C0000203D
:100350003C2000209D0300007D0A0000FEE7FEE730
:10036000FEE7FEE7FEE7FEE7FEE7FEE7FEE7FEE765
:1003700000F002B8FFF7FCBF0F484FF007018843B9
:1003800085460E4880470E48016841F470010160BF
:10039000BFF34F8FBFF36F8FFFF732BF09480A4992
:1003A0000A4A884207D0521A05D0037801300B70F0
:1003B0000131013AF9D17047000004200111000019
:1003C00088ED00E0AC1C00000000002000000020D0
:1003D00001F046BC00B583B00190019B1B682F2B38
:1003E00004D90B4940F2CD1000F0D8F9019B1B68ED
:1003F0001F2B02D84FF0A04306E0019B1B6803F0BF
:100400001F02019B1A60034B184603B05DF804FB02
:10041000AC1C00000003005000B585B001900846F8
:1004200011461A4603468DF803300B468DF802300C
:1004300013468DF8013001AB1846FFF7CBFF039050
:100440009DF803209DF802305B001A439DF80130AF
:100450009B001A439DF818301B0242EA03019DF8E5
:100460001C301B04019A1943039B02F5E07243F808
:10047000221000BF05B05DF804FB00B585B0039005
:1004800000230193002300930023012201210398FC
:10049000FFF7C2FF00BF05B05DF804FB00B585B0F3
:1004A00003900B468DF80B309DF80B300022019223
:1004B00000220092002200210398FFF7ADFF00BF49
:1004C00005B05DF804FB00B585B0019001AB18469E
:1004D000FFF780FF0390019B012202FA03F3194604
:1004E000039800F02AF800BF05B05DF804FB00B5E2
:1004F00085B0019001AB1846FFF76CFF0390019B9C
:10050000012202FA03F31946039800F020F800BF15
:1005100005B05DF804FB00B583B001900091009B2D
:10052000002B03D10198FFF7E2FF02E00198FFF7EB
:10053000CAFF00BF03B05DF804FB82B001900091D8
:10054000019B009AC3F8082500BF02B0704782B033
:1005500001900091019B009AC3F80C2500BF02B0E6
:100560007047000000B583B00190019B032B03D9B5
:100570000749412000F012F9064A019B13441B78F9
:1005800000211846FFF7C7FF00BF03B05DF804FB6A
:10059000DC1C0000201D000000B583B00190019B11
:1005A000032B03D90749472000F0F8F8064A019BBE
:1005B00013441B7801211846FFF7ADFF00BF03B0BD
:1005C0005DF804FBDC1C0000201D000000B583B0BA
:1005D0000023019305E00198FFF7DEFF019B013343
:1005E0000193019B032BF6D900BF00BF03B05DF858
:1005F00004FB00B583B00023019305E00198FFF7E9
:10060000B1FF019B01330193019B032BF6D900BF7E
:1006100000BF03B05DF804FB00B583B00023019375
:1006200009E0094A019B13441B781846FFF725FF90
:10063000019B01330193019B032BF2D9FFF7C6FF06
:1006400000BF03B05DF804FB201D000000B583B0BF
:10065000002301930AE0094A019B13441B780321FC
:100660001846FFF71BFF019B01330193019B032BEE
:10067000F1D900BF00BF03B05DF804FB241D0000EA
:1006800000B583B00190019B03F00103002B01D062
:10069000FFF7C2FF019B03F00203002B01D0FFF71D
:1006A000D5FF00BF03B05DF804FB000086B00390E7
:1006B0000291019201238DF817309DF81730214ADD
:1006C000039B13601F4A029B53601E4A019B936069
:1006D000039B44F20102934213D0039B44F20202B3
:1006E000934221D1019B174AD360164BDB681B88CC
:1006F0001A46144B9A61134BDB685B68114AD3614D
:1007000012E0019B0F4A13610E4B1B699B680D4A57
:1007100053610C4B1B691B680A4A9361094B1B69A7
:100720005B68084AD36100BF72B600BF00BF9DF886
:100730001730DBB2002BFAD162B600BF00BF06B0A3
:10074000704700BF0800002000B587B003900291F9
:10075000019272B600BF039B44F20102934207D09C
:10076000039B44F20202934205D1019B059303E0EF
:10077000019B049300E000BF074B1B6803F00103DB
:10078000002B00D000BE019A02990398FFF78EFF5C
:1007900000BF07B05DF804FBF0ED00E000B585B0E8
:1007A00003460091ADF80630BDF80630ADF80830CC
:1007B000009B039302AB1A46002144F20200FFF7AC
:1007C000C3FF00BF05B05DF804FB000000B585B0B5
:1007D0000190019B002B0AD0074B43F001030393C8
:1007E000019B9B010293039B0298984700E000BF86
:1007F00005B05DF804FB00BF701D000000B583B0BC
:100800000190019B002B0AD04FF47A70FFF7DEFFB6
:10081000019B013B0193019B002BF5D100E000BF40
:1008200003B05DF804FB000000B583B00190019BAC
:100830001B682F2B04D90B4940F2CD10FFF7AEFFF8
:10084000019B1B681F2B02D84FF0A04306E0019BC1
:100850001B6803F01F02019B1A60034B184603B08C
:100860005DF804FB281D00000003005000B585B0B2
:100870000190084611461A4603468DF803300B4690
:100880008DF8023013468DF8013001AB1846FFF7A2
:10089000CBFF03909DF803209DF802305B001A43C4
:1008A0009DF801309B001A439DF818301B0242EA64
:1008B00003019DF81C301B04019A1943039B02F5A8
:1008C000E07243F8221000BF05B05DF804FB00B5EC
:1008D00085B003900023019300230093002301229D
:1008E00001210398FFF7C2FF00BF05B05DF804FBCC
:1008F00000B585B003900B468DF80B309DF80B309A
:100900000022019200220092002200210398FFF7AA
:10091000ADFF00BF05B05DF804FB00B585B00190E8
:1009200001AB1846FFF780FF0390039800F00AF828
:100930000246019B22FA03F303F00103184605B0B7
:100940005DF804FB82B00190019BD3F81035184686
:1009500002B0704708B503210B20FFF7C9FF032140
:100960000C20FFF7C5FF03211820FFF7C1FF03216B
:100970001920FFF7BDFF00BF08BD08B50D20FFF728
:10098000A6FF0E20FFF7A3FF0F20FFF7A0FF102008
:10099000FFF79DFF00BF08BD00B583B003468DF88B
:1009A00007301A4B1B78022B23D0022B28DC002B9C
:1009B00002D0012B0AD023E09DF80730002B05D090
:1009C000124B01221A703220FFF718FF9DF80730F2
:1009D000002B0BD00D4B02221A709DF807301946E0
:1009E0000B4800F0A1FD9DF807300AE0074B0022FC
:1009F0001A709DF80730002B02D1044B01221A70A7
:100A00000023184603B05DF804FB00BF2800002057
:100A1000581D000000B585B001900091019B5B78E6
:100A20008DF80F300099019800F0EEFA03468DF82A
:100A30000E309DF80E30022B1BD1019B5B788DF898
:100A40000D3005238DF80C30019B9DF80F205A7056
:100A500003AB1946019800F0D7FA04238DF80C3047
:100A6000019B9DF80D205A7003AB1946019800F0C8
:100A7000CBFA00BF05B05DF804FB000000B583B001
:100A80000120FFF7FDFDFFF765FFFFF776FF384810
:100A900000F0EAFA0B20FFF740FF03468DF807301D
:100AA0000C20FFF73AFF03468DF806301820FFF7B9
:100AB00034FF03468DF805301920FFF72EFF03465B
:100AC0008DF804309DF80730002B01D1082200E09A
:100AD00000229DF80630002B01D1042300E0002302
:100AE00013435BB29DF80520002A01D1022200E0E9
:100AF000002213435AB29DF80430002B0CBF01238F
:100B00000023DBB25BB213435BB28DF803309DF878
:100B100003301846FFF740FF03468DF803309DF879
:100B20000330002BB6D09DF80330082B03D10023EF
:100B30008DF8003016E09DF80330042B03D101231B
:100B40008DF800300EE09DF80330012B03D1032314
:100B50008DF8003006E09DF80330022B02D102230D
:100B60008DF800306B4619460148FFF753FF91E7B7
:100B70002C00002000B585B00190019B002B0AD00D
:100B8000074B43F001030393019B9B010293039BDB
:100B90000298984700E000BF05B05DF804FB00BF75
:100BA000201E000000B583B00190019B1B682F2B15
:100BB00004D90B4940F2CD10FFF7F0FD019B1B68F3
:100BC0001F2B02D84FF0A04306E0019B1B6803F0E7
:100BD0001F02019B1A60034B184603B05DF804FB2B
:100BE000781D00000003005000B585B0019001ABF6
:100BF0001846FFF7D7FF0390019B012202FA03F387
:100C00001946039800F018F800BF05B05DF804FB22
:100C100000B585B0019001AB1846FFF7C3FF039004
:100C2000019B012202FA03F31946039800F00EF823
:100C300000BF05B05DF804FB82B001900091019BFC
:100C4000009AC3F8082500BF02B0704782B0019037
:100C50000091019B009AC3F80C2500BF02B07047B9
:100C600000B583B00190019B002B0AD04FF47A703D
:100C7000FFF780FF019B013B0193019B002BF5D106
:100C800000E000BF03B05DF804FB000000B585B0D4
:100C90000190019B1B781946104800F045FC002389
:100CA0008DF80F300EE09DF80F300D4AD35C1846DA
:100CB000FFF7AEFF3220FFF7D3FF9DF80F3001336F
:100CC0008DF80F30019B1B789DF80F209A42EAD3D4
:100CD00000BF00BF05B05DF804FB00BFA81D000009
:100CE0000000002000B583B001900199034800F096
:100CF0001BFC00BF03B05DF804FB00BFBC1D00007F
:100D000000B585B001900F4800F02EFC00238DF84F
:100D10000F300EE09DF80F300B4AD35C1846FFF7FA
:100D200063FF3220FFF79CFF9DF80F3001338DF8F1
:100D30000F309DF80F30032BECD900BF00BF05B07A
:100D40005DF804FBC41D00000000002000B587B062
:100D50000190002305932EE00023049309E01A4A32
:100D6000049B13441B781846FFF752FF049B013382
:100D70000493019B1B781A46049B9342EFDB64208B
:100D8000FFF76EFF0023039309E00F4A039B134410
:100D90001B781846FFF728FF039B01330393019B41
:100DA0001B781A46039B9342EFDB6420FFF758FF42
:100DB000059B01330593059B632BCDDD00BF00BF71
:100DC00007B05DF804FB00BF0000002000B583B051
:100DD00001900091009B1B78052B30D801A252F89E
:100DE00023F000BF1D0E0000270E0000310E000092
:100DF0003B0E0000FD0D0000130E0000019B0022C1
:100E00001A700198FFF742FF0F48FFF76BFF0023AE
:100E100015E00198FFF774FF002310E0019B012209
:100E20005A7002230BE0019B01225A70022306E054
:100E3000019B02225A70022301E00123FFE71846BA
:100E400003B05DF804FB00BFD01D000000B583B007
:100E500001900091009B1B78052B4ED801A252F8FF
:100E600023F000BF970E0000BF0E0000E70E000049
:100E7000F10E00007D0E00008D0E00000198FFF7BE
:100E800005FF2048FFF72EFF002336E00198FFF70B
:100E900037FF002331E0019B1B78032B0DD8019B0A
:100EA0001B780133DAB2019B1A700198FFF728FF13
:100EB0000198FFF7EBFE00231FE001231DE0019BDB
:100EC0001B78002B0DD0019B1B78013BDAB2019BF4
:100ED0001A700198FFF714FF0198FFF7D7FE00235F
:100EE0000BE0012309E0019B02225A70022304E077
:100EF000019B00225A700223FFE7184603B05DF8F9
:100F000004FB00BFE01D000000B583B0019000911C
:100F1000009B1B78052B36D801A252F823F000BFA6
:100F20006B0F00006F0F0000730F00007D0F0000BB
:100F3000390F00005B0F0000019B1B78002B0AD0CB
:100F40000198FFF7A3FE1248FFF7CCFE0198FFF7C8
:100F5000FDFE022317E0012315E00198FFF7D0FE04
:100F6000019B03225A7002230DE001230BE00123B1
:100F700009E0019B03225A70022304E0019B002236
:100F80005A700223FFE7184603B05DF804FB00BF68
:100F9000EC1D000000B583B001900091009B1B7810
:100FA000052B2AD801A252F823F000BFDF0F000062
:100FB000E30F0000E70F0000F10F0000C50F000075
:100FC000D50F00000198FFF761FE0E48FFF78AFE7B
:100FD000002312E00198FFF793FE00230DE00123A8
:100FE0000BE0012309E0019B02225A70022304E076
:100FF000019B00225A700223FFE7184603B05DF8F8
:1010000004FB00BF0C1E000000B583B001900091EE
:10101000019B5B78032B23D801A252F823F000BF79
:10102000311000003D100000491000005510000074
:1010300000990198FFF7CAFE034611E00099019854
:10104000FFF704FF03460BE000990198FFF75CFFF0
:10105000034605E000990198FFF79CFF0346FFE770
:10106000184603B05DF804FB00B585B00190042379
:101070008DF80C30019B00225A70019B00221A70DF
:1010800000238DF80F300EE0FFF7B3FA3220FFF7A0
:10109000E7FDFFF79BFA3220FFF7E2FD9DF80F30E6
:1010A00001338DF80F309DF80F30092BECD903ABCD
:1010B00019460198FFF7A8FF00BF05B05DF804FBD3
:1010C000BFF34F8F00BF074BDB6803F4E0620549B5
:1010D000054B1343CB60BFF34F8F00BF00BF00BF72
:1010E000FCE700BF00ED00E00400FA05024B034AF4
:1010F0001A6000BF704700BF040000200090D003BA
:1011000008B500F027F90346002B0ED04FF08043BE
:101110000022C3F80C214FF080430022C3F81021B5
:101120004FF080430022C3F8382500F037F903461A
:10113000002B76D04FF080537D4AD3F80434C2F8A8
:1011400020354FF080537A4AD3F80834C2F824355A
:101150004FF08053764AD3F80C34C2F828354FF05C
:101160008053734AD3F81034C2F82C354FF08053B3
:101170006F4AD3F81434C2F830354FF080536C4ABC
:10118000D3F81834C2F834354FF08053684AD3F896
:101190001C34C2F840354FF08053654AD3F82034F0
:1011A000C2F844354FF08053614AD3F82434C2F872
:1011B00048354FF080535E4AD3F82834C2F84C3596
:1011C0004FF080535A4AD3F82C34C2F850354FF0C0
:1011D0008053574AD3F83034C2F854354FF0805317
:1011E000534AD3F83434C2F860354FF08053504A34
:1011F000D3F83834C2F864354FF080534C4AD3F8F2
:101200003C34C2F868354FF08053494AD3F8403433
:10121000C2F86C354FF08053454AD3F84434C2F8D5
:10122000703500F0DFF80346002B02D0414B424AF4
:101230001A6000F0E9F80346002B03D03F4BFB2275
:10124000C3F8182500F0F2F80346002B0AD03C4BF7
:101250001B6823F00F023B4B1B6803F00F03384958
:1012600013430B6000F0F4F80346002B03D0364B19
:101270004FF400721A6000F0FDF80346002B0DD009
:101280004FF08043D3F8003403F00103002B05D066
:101290004FF080436FF00102C3F800242B4BD3F8CA
:1012A00088302A4A43F47003C2F88830BFF34F8F66
:1012B00000BFBFF36F8F00BF4FF01023D3F8003291
:1012C000002B05DB4FF01023D3F80432002B2BDA70
:1012D0001F4B0122C3F8042500BF1D4BD3F8003477
:1012E000002BFAD04FF010231222C3F8002200BFC7
:1012F000174BD3F80034002BFAD04FF010231222F2
:10130000C3F8042200BF124BD3F80034002BFAD0EC
:101310000F4B0022C3F8042500BF0D4BD3F8003457
:10132000002BFAD0FFF7CCFEFFF7E0FE00BF08BDB0
:1013300000C000408C5600404881030000F000408F
:10134000E40E0040580200104096024000ED00E01C
:1013500000E001400F4B1B68082B17D10E4B1B6898
:10136000002B01D1012312E00B4B1B68012B01D193
:1013700001230CE0084B1B68022B01D1012306E07E
:10138000054B1B68032B01D1012300E00123184604
:10139000704700BF30010010340100100F4B1B6874
:1013A000082B17D10E4B1B68002B01D1012312E033
:1013B0000B4B1B68012B01D101230CE0084B1B6870
:1013C000022B01D1012306E0054B1B68032B01D141
:1013D000012300E001231846704700BF30010010D0
:1013E00034010010064B1B68082B05D1054B1B6808
:1013F000002B01D1012300E000231846704700BFF5
:101400003001001034010010064B1B68082B05D179
:10141000054B1B68002B01D1012300E00023184677
:10142000704700BF3001001034010010064B1B68EC
:10143000082B05D1054B1B68002B01D1012300E0CF
:1014400000231846704700BF30010010340100101F
:10145000064B1B68082B05D1054B1B68002B01D1DF
:10146000012300E000231846704700BF3001001040
:10147000340100100F4B1B68082B17D10E4B1B6853
:10148000002B01D1012312E00B4B1B68012B01D172
:1014900001230CE0084B1B68022B01D1012306E05D
:1014A000054B1B68032B01D1012300E001231846E3
:1014B000704700BF300100103401001010B5044621
:1014C0000846A2684AB12368616803F1010C8C45A3
:1014D00008BF00208B4208D2D054E3682BB12168AA
:1014E0006268914201D22146984723680133236004
:1014F00010BD70B54C1E09D41646C5B229463046FB
:10150000FFF7DCFF013CB4F1FF3FF7D170BD10F0F5
:10151000100F08D108B510F4007F14BF3020202030
:10152000FFF7E7FF08BD70470FB410B586B008ABF2
:1015300053F8044B0593002303936FF00043029389
:10154000084B049300F08AFB059A214601A800F09D
:1015500069F8044600F083FB204606B0BDE8104061
:1015600004B07047D103000070B5054600F076FB6B
:10157000013D002615F8010F48B13146FEF728FF5E
:101580000446B0F1FF3FF5D100F069FB06E0002111
:101590000A20FEF71DFF044600F061FB204670BDE7
:1015A000037853B159B10144034613F8012F12B126
:1015B0008B42FAD10B46181A70470346FBE70346E5
:1015C000F9E700F1010110F0030F11D010F8012B21
:1015D000002A23D010F0030F0AD010F8012B002AA4
:1015E0001CD010F0030F03D010F8012B002A15D0E7
:1015F0002DE970004FF001324FF0803350F8044B6A
:10160000A4EB020525EA04051D4000D1F6E7A0F190
:10161000040070BC10F8012B002AFBD1A0EB0100E4
:10162000704700002DE9F04F89B007460392002370
:1016300003600C4614F8011B002900F0FC82DFF85F
:1016400018B5EBE2002507E05E2868D145F4805527
:1016500001E045F040051C46234613F8010B3028F5
:10166000F2D81F2837D9A0F12002102A33D801A1BF
:1016700051F822F053160000D7160000D7160000CC
:10168000B9160000D7160000D7160000D7160000C4
:10169000BF160000D7160000D7160000D7160000AE
:1016A000C5160000D7160000CB160000D7160000A4
:1016B000D7160000D116000045F08005CBE745F4B1
:1016C0000045C8E745F02005C5E745F01005C2E72D
:1016D00045F40075BFE72A2821D1039A111D039113
:1016E000D2F800A0BAF1000FBCBFCAF1000A45F061
:1016F00010051878A31C2AEAEA7A2E2826D00021A1
:10170000742847D07A2845D06C2800F0A8804C284F
:1017100000F0AB80682800F0B8801C463DE0A0F1E6
:101720003002D2B2092A88BF4FF0000AE3D84FF046
:10173000000A0AEB8A0A303800EB4A0A13F8010B58
:10174000A0F13002D2B2092AF3D9D4E718782A28B6
:101750000AD1039A111D03911168587802330029A8
:10176000CEDB45F48075CBE70133A0F13002D2B275
:10177000092A88BF0021F4D8002101EB810130380B
:1017800000EB410113F8010BA0F13002D2B2092A9B
:10179000F3D9E4E71C4614F8010B002800F0578247
:1017A000A0F12503DBB2532B62D8A0F12503532B04
:1017B0005ED8DFE813F076005D005D005D005D003F
:1017C0005D005D005D005D005D005D005D005D0031
:1017D0005D005D005D005D005D005D005D005D0021
:1017E0005D005D005D005D005D005D005D005D0011
:1017F0005D005D005D005D005D005D005D005D0001
:101800005D005D005D005D005D005D005D005D00F0
:101810005D005D005D005D005D005D00EC005D0051
:101820005D005D005D005D005D005D005D005D00D0
:101830005D007B0021015D005D005D005D00210118
:101840005D005D005D005D0095000F01D2005D0050
:101850005D00A6005D001A015D005D00EE001C4603
:1018600014F8010B45F0010597E745F001051C460A
:10187000B54B1E68002E00F0CE8103AB01930091A2
:1018800053462A463946B047C5E11878682803D040
:101890005C1C45F0040580E745F008059C1C587861
:1018A0007BE725213846FFF709FEB4E1039B1A1DAB
:1018B00003921E780AF1FF3A3A4651462846FFF74E
:1018C00026FE31463846FFF7F9FDA94619F0100FFC
:1018D00000F0A1813A4651462020FFF70AFE9AE126
:1018E00015F0080F06D03A68039B191D03911B6879
:1018F0001A7090E1039B1A1D03921B683A681A60E4
:1019000089E1039B1A1D0392D3F800808F4BB8F135
:10191000000F08BF9846464625F4007915F4807FED
:1019200016D04046FFF73CFE0546AAEB050A3A46AC
:1019300051464846FFF7EBFD002DC7D016F8011BB6
:101940003846FFF7BBFDA8EB0603EB42F6D1BDE737
:101950004046FFF736FE0546E7E7039B1A1D039254
:101960001B6815F0800F0CBF0026232645F48075F8
:1019700008211A46002B00F02A8105AB4FF0000821
:1019800005F4005CA64660468C460146D2E045F46C
:10199000005515F0800F1BD043F2780643F2580330
:1019A000782818BF1E4615F4807F01D025F40075F5
:1019B00015F4804F32D0039B1A1D03921B6815F05B
:1019C000040F1FD01BB2002B20DA5B422D262DE026
:1019D0000026E8E715F0800F0CBF0026302615F42E
:1019E000807FE5D025F40075E2E715F4807F07D00D
:1019F00025F400750026DBE745F480450026D7E78F
:101A00000026D5E715F0080FDDD0DBB215F0200F6A
:101A100061D115F0400F18BF202607E0039B1A1D67
:101A200003921B6815F0040F50D09BB215F4807F11
:101A300014BF25F4007501215838202800F2AF802A
:101A400001A252F820F000BF731900009F1B000094
:101A50009F1B00009F1B00009F1B00009F1B00009E
:101A60009F1B00009F1B00009F1B00009F1B00008E
:101A70009F1B00009F1B0000031B00009F1B00001A
:101A80009F1B00009F1B00009F1B0000031B00000A
:101A90009F1B00009F1B00009F1B00009F1B00005E
:101AA0009F1B0000DB1A0000731900009F1B000041
:101AB0009F1B00009F1B00009F1B0000031B0000DA
:101AC0009F1B00009F1B00007319000015F0080FFA
:101AD000ACD0DBB2AAE72B26A8E71A464FF00008E5
:101AE000002B5ED005A84FF0000803F00703303349
:101AF00000F8013B08F10108D2081346002AF4D18E
:101B00004FE018464FF00008002B4AD04FF0000875
:101B100005F4004E4FF02C0973468E4619462FE00F
:101B200002F00F000A4C205C03F8010B08F10108D9
:101B3000120906D00029F3D002F00F00054C205CFA
:101B4000F2E7744661462CE030000020481E000099
:101B5000281E0000381E0000CDCCCCCC08AB03EB17
:101B6000080CABFB0032D20802EB8203A0EB43036C
:101B700030330CF80C3C08F1010809280DD9104647
:101B80000029EBD008F00303032BE7D108AB434453
:101B900003F80C9C08F10108E0E7714601E04FF002
:101BA0000008A1EB080121EAE179AAEB090AAAEBF6
:101BB000080AFF2E0ED9AAF1020AC6F307213846F9
:101BC000FFF77CFCF1B23846FFF778FC04E04FF0F9
:101BD0000008E6E7002E3DD13A4651462846FFF779
:101BE00096FC3A4649463020FFF783FCB8F1000FD7
:101BF0000EDD0DF1140908F1FF38C84498F8001003
:101C000046463846FFF75AFCC14508F1FF38F5D182
:101C100015F0100F09D114F8011B61B125293FF40B
:101C200011AD3846FFF74AFCF5E73A465146202009
:101C3000FFF75FFCEFE7BB682BB13A6879688A422F
:101C40003CBF00219954386809B0BDE8F08F4FF0CF
:101C5000FF30F9E70AF1FF3AB4E700BF7047704779
:101C600010B504460146172000F008F800280CBF04
:101C700020464FF0FF3010BD7047704738B504461E
:101C80000D46FFF7F9FF074B1D6044F08004064B3B
:101C90001C601A461368002BFCD1FFF7EEFF014BC6
:0C1CA000186838BD380000203400002017
:101CAC002E2E2F2E2E2F2E2E2F2E2E2F2E2E2F2E43
:101CBC002E2F6D6F64756C65732F6E7266782F683E
:101CCC00616C2F6E72665F6770696F2E6800000022
:101CDC002F686F6D652F646E6B3132342F446573D2
:101CEC006B746F702F507269796573682F6E5246E2
:101CFC00355F53444B2F636F6D706F6E656E7473ED
:101D0C002F626F617264732F626F617264732E63E2
:101D1C00000000000D0E0F100B0C18192E2E2F2E7C
:101D2C002E2F2E2E2F2E2E2F2E2E2F2E2E2F6D6F42
:101D3C0064756C65732F6E7266782F68616C2F6E8C
:101D4C0072665F6770696F2E6800000062746E20A7
:101D5C0076616C75653A2025640D0A000000000060
:101D6C00000000000338FDD8704700002E2E2F2EE7
:101D7C002E2F2E2E2F2E2E2F2E2E2F2E2E2F6D6FF2
:101D8C0064756C65732F6E7266782F68616C2F6E3C
:101D9C0072665F6770696F2E68000000437572721F
:101DAC00656E74204C4544733A2025640D0A00007E
:101DBC0025730D0A00000000436C656172206C6590
:101DCC00640D000049444C452053544154450D0AC0
:101DDC0000000000536574204C6564730000000023
:101DEC004150504C49434154494F4E206973206235
:101DFC006C696E6B696E67204C4544730D0A00006C
:101E0C005041555345204C656473000000000000A0
:101E1C00000000000338FDD8704700003031323329
:101E2C003435363738396162636465663031323344
:101E3C00343536373839414243444546286E756C43
:031E4C006C2900FE
:081E50000D0E0F100090D003ED
:040000030000037581
:00000001FF
